:020000040804EE
:1000000000000220193C0408293904082F3904088B
:10001000353904083B390408413904080000000060
:100020000000000000000000000000004739040844
:1000300055390408000000006339040871390408C8
:10004000693C0408693C0408693C0408693C0408EC
:10005000693C0408693C0408693C0408693C0408DC
:10006000693C0408693C0408693C0408693C0408CC
:10007000693C0408693C0408693C0408693C0408BC
:10008000693C0408693C0408693C0408693C0408AC
:10009000693C0408693C0408693C0408693C04089C
:1000A000693C0408693C0408693C0408693C04088C
:1000B000693C0408693C0408693C0408693C04087C
:1000C000693C0408693C0408693C0408693C04086C
:1000D000693C0408693C04087D3904089139040826
:1000E000693C0408693C0408693C0408693C04084C
:1000F000693C0408693C0408693C0408693C04083C
:10010000693C0408693C0408693C0408693C04082B
:10011000693C0408693C0408693C0408693C04081B
:10012000693C0408693C0408693C0408693C04080B
:10013000693C0408693C0408693C0408693C0408FB
:10014000693C0408693C0408693C0408693C0408EB
:10015000693C0408693C0408693C0408693C0408DB
:10016000693C0408693C0408693C0408693C0408CB
:10017000693C0408693C0408693C0408000000006C
:08018000693C0408693C040815
:1001900010B5054C237833B9044B13B10448AFF3C1
:1001A00000800123237010BDF80100200000000032
:1001B000BCAA040808B5034B1BB103490348AFF3BD
:1001C000008008BD00000000FC010020BCAA04085B
:1001D00010F8012B11F8013B012A28BF9A42F7D0F1
:1001E000D01A70470000000000000000000000006E
:1001F00001F0FF01102A2BDB10F0070F08D010F8D8
:10020000013B013A8B422DD010F0070F42B3F6D1DB
:10021000F0B441EA012141EA014122F007047FF0F4
:1002200000070023F0E80256083C85EA010586EA4B
:10023000010685FA47F5A3FA87F586FA47F6A5FA87
:1002400087F68EB9EED1F0BC01F0FF0102F0070293
:1002500032B110F8013B013A83EA010313B1F8D13E
:100260000020704701387047002D06BF354603381F
:10027000073815F0010F07D1013015F4807F02BF58
:10028000013015F4C03F0130F0BC0138704700BFA9
:10029000034613F8012B002AFBD1181A01387047C6
:1002A00081F0004102E000BF83F0004330B54FEA27
:1002B00041044FEA430594EA050F08BF90EA020F94
:1002C0001FBF54EA000C55EA020C7FEA645C7FEA27
:1002D000655C00F0E2804FEA5454D4EB5555B8BF4A
:1002E0006D420CDD2C4480EA020281EA030382EABB
:1002F000000083EA010180EA020281EA0303362D4D
:1003000088BF30BD11F0004F4FEA01314FF4801C1F
:100310004CEA113102D0404261EB410113F0004F31
:100320004FEA03334CEA133302D0524263EB4303E8
:1003300094EA050F00F0A780A4F10104D5F1200E86
:100340000DDB02FA0EFC22FA05F2801841F10001E1
:1003500003FA0EF2801843FA05F359410EE0A5F1B5
:1003600020050EF1200E012A03FA0EFC28BF4CF0E6
:10037000020C43FA05F3C01851EBE37101F000459C
:1003800007D54FF0000EDCF1000C7EEB00006EEBA9
:100390000101B1F5801F1BD3B1F5001F0CD3490833
:1003A0005FEA30004FEA3C0C04F101044FEA44528A
:1003B00012F5800F80F09A80BCF1004F08BF5FEA11
:1003C000500C50F1000041EB045141EA050130BDF1
:1003D0005FEA4C0C404141EB0101013C28BFB1F503
:1003E000801FE9D291F0000F04BF01460020B1FA4E
:1003F00081F308BF2033A3F10B03B3F120020CDA21
:100400000C3208DD02F1140CC2F10C0201FA0CF0FE
:1004100021FA02F10CE002F11402D8BFC2F1200C63
:1004200001FA02F120FA0CFCDCBF41EA0C01904019
:10043000E41AA2BF01EB0451294330BD6FEA040462
:100440001F3C1CDA0C340EDC04F11404C4F120024D
:1004500020FA04F001FA02F340EA030021FA04F35F
:1004600045EA030130BDC4F10C04C4F1200220FAB6
:1004700002F001FA04F340EA0300294630BD21FAF4
:1004800004F0294630BD94F0000F83F4801306BFBA
:1004900081F480110134013D4EE77FEA645C18BFAE
:1004A0007FEA655C29D094EA050F08BF90EA020F45
:1004B00005D054EA000C04BF1946104630BD91EA3D
:1004C000030F1EBF0021002030BD5FEA545C05D140
:1004D0004000494128BF41F0004130BD14F580047F
:1004E0003CBF01F5801130BD01F0004545F0FE41F3
:1004F00041F470014FF0000030BD7FEA645C1ABF28
:10050000194610467FEA655C1CBF0B46024650EA5E
:10051000013406BF52EA033591EA030F41F400218A
:1005200030BD00BF90F0000F04BF0021704730B510
:100530004FF4806404F132044FF000054FF00001E5
:1005400050E700BF90F0000F04BF0021704730B5A6
:100550004FF4806404F1320410F0004548BF40427B
:100560004FF000013EE700BF42004FEAE2014FEAD0
:1005700031014FEA02701FBF12F07F4393F07F4FAB
:1005800081F06051704732F07F4208BF704793F0AE
:100590007F4F04BF41F40021704730B54FF46074C1
:1005A00001F0004521F000411CE700BF50EA0102C4
:1005B00008BF704730B54FF000050AE050EA01026D
:1005C00008BF704730B511F0004502D5404261EBDD
:1005D00041014FF4806404F132045FEA915C3FF41E
:1005E000D8AE4FF003025FEADC0C18BF03325FEABB
:1005F000DC0C18BF033202EBDC02C2F1200300FA6C
:1006000003FC20FA02F001FA03FE40EA0E0021FA90
:1006100002F11444BDE600BF70B54FF0FF0C4CF47E
:10062000E06C1CEA11541DBF1CEA135594EA0C0F30
:1006300095EA0C0F00F0DEF82C4481EA030621EA6B
:100640004C5123EA4C5350EA013518BF52EA0335A6
:1006500041F4801143F4801338D0A0FB02CE4FF058
:100660000005E1FB02E506F00042E0FB03E54FF088
:100670000006E1FB03569CF0000F18BF4EF0010E80
:10068000A4F1FF04B6F5007F64F5407404D25FEA7C
:100690004E0E6D4146EB060642EAC62141EA55512F
:1006A0004FEAC52040EA5E504FEACE2EB4F1FD0C71
:1006B00088BFBCF5E06F1ED8BEF1004F08BF5FEAEF
:1006C000500E50F1000041EB045170BD06F00046A1
:1006D00046EA010140EA020081EA0301B4EB5C044E
:1006E000C2BFD4EB0C0541EA045170BD41F4801146
:1006F0004FF0000E013C00F3AB8014F1360FDEBF6B
:10070000002001F0004170BDC4F10004203C35DA46
:100710000C341BDC04F11404C4F1200500FA05F3C9
:1007200020FA04F001FA05F240EA020001F000426A
:1007300021F0004110EBD37021FA04F642EB0601E0
:100740005EEA430E08BF20EAD37070BDC4F10C040A
:10075000C4F1200500FA04F320FA05F001FA04F2CE
:1007600040EA020001F0004110EBD37041F10001BA
:100770005EEA430E08BF20EAD37070BDC4F12005C5
:1007800000FA05F24EEA020E20FA04F301FA05F22D
:1007900043EA020321FA04F001F0004121FA04F2D5
:1007A00020EA020000EBD3705EEA430E08BF20EAA5
:1007B000D37070BD94F0000F0FD101F000464000DF
:1007C00041EB010111F4801F08BF013CF7D041EA61
:1007D000060195F0000F18BF704703F00046520065
:1007E00043EB030313F4801F08BF013DF7D043EA36
:1007F0000603704794EA0C0F0CEA135518BF95EAEC
:100800000C0F0CD050EA410618BF52EA4306D1D172
:1008100081EA030101F000414FF0000070BD50EA91
:10082000410606BF1046194652EA430619D094EA1B
:100830000C0F02D150EA013613D195EA0C0F05D105
:1008400052EA03361CBF104619460AD181EA030159
:1008500001F0004141F0FE4141F470014FF0000011
:1008600070BD41F0FE4141F4780170BD70B54FF0AC
:10087000FF0C4CF4E06C1CEA11541DBF1CEA13552C
:1008800094EA0C0F95EA0C0F00F0A7F8A4EB05040E
:1008900081EA030E52EA03354FEA013100F0888005
:1008A0004FEA03334FF0805545EA131343EA1263CE
:1008B0004FEA022245EA111545EA10654FEA002683
:1008C0000EF000419D4208BF964244F1FD0404F53C
:1008D000407402D25B084FEA3202B61A65EB030598
:1008E0005B084FEA32024FF480104FF4002CB6EB55
:1008F000020E75EB030E22BFB61A754640EA0C00D5
:100900005B084FEA3202B6EB020E75EB030E22BF14
:10091000B61A754640EA5C005B084FEA3202B6EB55
:10092000020E75EB030E22BFB61A754640EA9C0014
:100930005B084FEA3202B6EB020E75EB030E22BFE4
:10094000B61A754640EADC0055EA060E18D04FEAA2
:10095000051545EA16754FEA06164FEAC30343EA42
:1009600052734FEAC2025FEA1C1CC0D111F4801F0F
:100970000BD141EA00014FF000004FF0004CB6E708
:1009800011F4801F04BF01430020B4F1FD0C88BFA7
:10099000BCF5E06F3FF6AFAEB5EB030C04BFB6EBB2
:1009A000020C5FEA500C50F1000041EB045170BDA5
:1009B0000EF0004E4EEA113114EB5C04C2BFD4EBD2
:1009C0000C0541EA045170BD41F480114FF0000E56
:1009D000013C90E645EA060E8DE60CEA135594EAD2
:1009E0000C0F08BF95EA0C0F3FF43BAF94EA0C0FD5
:1009F0000AD150EA01347FF434AF95EA0C0F7FF44A
:100A000025AF104619462CE795EA0C0F06D152EA9D
:100A100003353FF4FDAE1046194622E750EA410681
:100A200018BF52EA43067FF4C5AE50EA41047FF492
:100A30000DAF52EA43057FF4EBAE12E74FF0FF3CF7
:100A400006E000BF4FF0010C02E000BF4FF0010CC8
:100A50004DF804CD4FEA410C7FEA6C5C4FEA430C41
:100A600018BF7FEA6C5C1BD001B050EA410C0CBF90
:100A700052EA430C91EA030F02BF90EA020F0020F2
:100A8000704710F1000F91EA030F58BF994208BF59
:100A900090422CBFD8176FEAE37040F00100704716
:100AA0004FEA410C7FEA6C5C02D150EA013C07D16D
:100AB0004FEA430C7FEA6C5CD6D152EA033CD3D0B8
:100AC0005DF8040B704700BF8446104662468C46B2
:100AD0001946634600E000BF01B5FFF7B7FF0028E5
:100AE00048BF10F1000F01BD4DF808EDFFF7F4FF0E
:100AF0000CBF012000205DF808FB00BF4DF808ED99
:100B0000FFF7EAFF34BF012000205DF808FB00BFBB
:100B10004DF808EDFFF7E0FF94BF012000205DF8DD
:100B200008FB00BF4DF808EDFFF7CEFF94BF012092
:100B300000205DF808FB00BF4DF808EDFFF7C4FF8B
:100B400034BF012000205DF808FB00BF4FEA410CD4
:100B50007FEA6C5C02D150EA013C0AD14FEA430CB7
:100B60007FEA6C5C02D152EA033C02D14FF00000F4
:100B700070474FF0010070474FEA410212F5001232
:100B800015D211D56FF47873B3EB625212D94FEAD4
:100B9000C12343F0004343EA505311F0004F23FABE
:100BA00002F018BF404270474FF00000704750EA13
:100BB000013005D111F0004008BF6FF000407047D0
:100BC0004FF00000704700BF4A0011D212F500122A
:100BD00011D20DD56FF47873B3EB62520ED44FEA95
:100BE000C12343F0004343EA505323FA02F0704715
:100BF0004FF00000704750EA013002D14FF0FF3053
:100C000070474FF00000704753B94AB9002908BF38
:100C100000281CBF4FF0FF314FF0FF3000F0A6B9A5
:100C2000ADF1080C6DE904CE00F03CF8DDF804E00D
:100C3000DDE9022304B0704738B5002200230446E2
:100C40000D46FFF75BFF28B920462946BDE838402E
:100C500000F00AB8204605F1004100F005F84042D6
:100C600061EB410138BD00BFD0B50C4B00220646F8
:100C70000F46FFF7D1FCFFF7A7FF0446FFF752FC32
:100C8000074B0022FFF7C8FC02460B4630463946A8
:100C9000FFF70AFBFFF798FF2146D0BD0000F03DAB
:100CA0000000F0412DE9F047089E0D4604460F462E
:100CB000002B4AD18A42944665D9B2FA82F343B1F5
:100CC00002FA03FCC3F120029F4020FA02F217430C
:100CD0009C404FEA1C4E1FFA8CF5B7FBFEF1220C2C
:100CE0000EFB117742EA074201FB05F090420AD958
:100CF0001CEB020201F1FF3780F01C81904240F2B0
:100D0000198102396244121AA4B2B2FBFEF00EFB42
:100D1000102244EA024400FB05F5A5420AD91CEB67
:100D2000040400F1FF3280F00781A54240F2048103
:100D30006444023840EA0140641B00211EB1DC40DB
:100D40000023C6E90043BDE8F0878B4208D9002E96
:100D500000F0ED800021C6E900050846BDE8F087F7
:100D6000B3FA83F1002949D1AB4202D3824200F2A7
:100D7000F880841A65EB030201201746002EE2D0AA
:100D8000C6E90047DFE702B9FFDEB2FA82F3002BC3
:100D900040F090808A1A4FEA1C471FFA8CFE01210E
:100DA000B2FBF7F507FB1520220C42EA00420EFBCE
:100DB00005F0904208D91CEB020205F1FF3802D27F
:100DC000904200F2CB804546121AA4B2B2FBF7F073
:100DD00007FB102244EA02440EFB00FEA64508D998
:100DE0001CEB040400F1FF3202D2A64500F2BB80E6
:100DF0001046A4EB0E0440EA05409FE7C1F120072E
:100E00008B4022FA07FC4CEA030C05FA01F420FAA5
:100E100007F3FD404FEA1C492343B5FBF9F81FFADD
:100E20008CFE09FB18551C0C44EA054408FB0EF522
:100E3000A54202FA01F200FA01F00BD91CEB0404FE
:100E400008F1FF3A80F08880A54240F28580A8F141
:100E500002086444641B9DB2B4FBF9F309FB13441C
:100E600045EA044403FB0EFEA64508D91CEB040426
:100E700003F1FF356CD2A6456AD9023B644443EACC
:100E80000843A3FB0295A4EB0E04AC42C846AE4651
:100E900056D353D056B1B0EB080264EB0E0404FAFB
:100EA00007F7CA40CC401743C6E900741846002132
:100EB000BDE8F087C3F1200102FA03FC20FA01F239
:100EC00025FA01F19D402A434FEA1C471FFA8CFE88
:100ED000B1FBF7F007FB1015110C41EA054100FBCF
:100EE0000EF58D4204FA03F408D91CEB010100F160
:100EF000FF382FD28D422DD902386144491B92B25E
:100F0000B1FBF7F507FB151142EA014205FB0EF1B3
:100F1000914208D91CEB020205F1FF3816D291422A
:100F200014D9023D6244521A45EA004138E731467D
:100F3000304608E73946E6E61046FBE64845A9D2C2
:100F4000B9EB020865EB0C0E013BA3E74546EAE767
:100F50002B4694E74046D1E7D0467BE7023D62440A
:100F600032E708460AE76444023842E7704700BFA8
:100F700080B400AFBFF34F8F00BF064BDB6803F4B4
:100F8000E0620449044B1343CB60BFF34F8F00BFB3
:100F900000BFFDE700ED00E00400FA0580B485B075
:100FA00000AF78600F4B1B680F4AA2FB03239B091D
:100FB0007A6802FB03F30C4AA2FB03239B09BB6084
:100FC0000023FB6002E0FB680133FB60FA68BB684A
:100FD0009A42F8D300BF00BF1437BD465DF8047BCA
:100FE000704700BF24000020D34D621080B500AFD1
:100FF000564B00221A705649564800F06FFF00BF4A
:101000004FF47A739BB2184600F092FF0346012B0F
:10101000F6D04E4B1B78022B40F089804E494F484A
:1010200000F05CFF00BF4FF47A739BB2184600F0EB
:101030007FFF0346012BF6D0444B1B78022B78D15F
:101040004749484800F04AFF00BF4FF47A739BB20B
:10105000184600F06DFF0346012BF6D03B4B1B7882
:10106000022B68D14FF47A73184602F071FE3849AA
:101070003D4800F033FF00BF4FF47A739BB218462F
:1010800000F056FF0346012BF6D0304B1B78022BA5
:1010900053D13649364800F021FF00BF4FF47A7330
:1010A0009BB2184600F044FF0346012BF6D0274BB5
:1010B0001B78022B43D14FF47A73184602F048FE96
:1010C00023492C4800F00AFF00BF4FF47A739BB20B
:1010D000184600F02DFF0346012BF6D01B4B1B7862
:1010E000022B2ED14FF47A73184602F031FE1849C4
:1010F000214800F0F3FE00BF4FF47A739BB218460C
:1011000000F016FF0346012BF6D0104B1B78022B84
:1011100019D14FF47A73184602F01AFE174800F0FE
:1011200043FF4FF47A731846FFF738FF0CE000BF17
:101130000AE000BF08E000BF06E000BF04E000BF17
:1011400002E000BF00E000BF80BD00BF3C360020D1
:10115000D8AA0408DCAA0408E4AA0408F4AA04082B
:1011600000AB04080CAB040818AB040838AB040847
:1011700044AB040850AB04085CAB040868AB04083B
:1011800080B500AF4FF47A7317222B492B4804F037
:10119000E7FA4FF47A7002F0DBFD4FF47A73242201
:1011A0002749264804F0DCFA4FF47A7002F0D0FDAB
:1011B0004FF47A7328222349204804F0D1FA4FF4DF
:1011C0007A7002F0C5FD4FF47A7329221E491B483C
:1011D00004F0C6FA4FF47A7002F0BAFD4FF47A7355
:1011E0001B221A49154804F0BBFA4FF47A7002F03A
:1011F000AFFD4FF47A731D221549104804F0B0FA80
:101200004FF47A7002F0A4FD4FF47A73252211494D
:101210000A4804F0A5FA4FF47A7002F099FD4FF4F1
:101220007A731E220C49054804F09AFA4FF47A703A
:1012300002F08EFD00BF80BD78AB0408FC360020B4
:1012400090AB0408B8AB0408E4AB040810AC040885
:101250002CAC04084CAC040874AC040880B5E0B0B5
:1012600000AF314B1A6807F580733049184606F015
:10127000C5FE07F580732E49184600F02FFE00BF0B
:1012800044F620639BB2184600F052FE0346012B41
:10129000F6D0284B1B78022B3CD1274B1A6807F15C
:1012A00080032649184606F0A9FE07F18003244969
:1012B000184600F013FE00BF41F288339BB2184677
:1012C00000F036FE0346012BF6D01A4B1B78022B9A
:1012D00022D1184B00221A701A4B1A683B461A4941
:1012E000184606F08BFE3B461849184600F0F6FDFE
:1012F00000BF41F288339BB2184600F019FE034646
:10130000012BF6D00B4B1B78022B07D1104B01227F
:101310001A7004E000BF02E000BF00E000BF07F564
:10132000C077BD4680BD00BF0C000020E0AC0408C3
:10133000F8AC04083C3600201000002008AD04087A
:101340001CAD0408140000202CAD040844AD0408B2
:101350002C06002080B584B000AF7860396000238F
:10136000FB6002F0E9FCB8602EE01D4BB3F80221EF
:101370001B4BB3F800319A421DD0194BB3F8023120
:101380005A1C91B2164AA2F802111946FB685A1C5F
:10139000FA607A681344124A525C1A7002F0CCFC6C
:1013A000B8600F4BB3F80231FF2B0DD90C4B002264
:1013B000A3F8022108E002F0BFFC0246BB68D31A82
:1013C00047F23052934204D8FA683B689A42CCD331
:1013D00000E000BFFB6818461037BD4680BD00BF67
:1013E0002805002080B582B000AF0346FB71164B84
:1013F0001B685A1C14490A601449FA79CA54124BE2
:101400001B68FF2B04D8104B1B68104A0021D154D5
:101410000F490E4806F0B9FE0346002B02D00D4BD3
:1014200001221A70084B1B68FE2B08D9064B0022BC
:101430001A604FF480720021044806F06CFE00BF71
:101440000837BD4680BD00BF1C050020382600209F
:1014500058AD04082005002080B582B000AF0346D7
:10146000FB71144B1B68B3F5FF7F10D8114B1B6841
:101470005A1C10490A601049FA79CA540D4B1B686E
:101480000D4A0021D154FB797D2B0FD103E0094B8C
:1014900000221A600AE0074B1B68074A0021D1545A
:1014A000054800F00BF8034B00221A600837BD46D0
:1014B00080BD00BF140500201403002080B588B053
:1014C00000AF78607B21786806F02DFEF861F8693E
:1014D00001F0E4FAB861BB69002B2DD01849B86956
:1014E00001F0E1FD78611749B86901F0DCFD386170
:1014F0007B69002B1DD03B69002B1AD07B691B69CF
:10150000FB601149F868FEF763FE0346002B10D11B
:101510003B691B69FF2219460C4806F023FE0B4B62
:10152000002283F8FF200A4B00221A70094B012287
:101530001A70B86900F0D8FD00BF2037BD4680BDE5
:1015400060AD040870AD040880AD040814020020EA
:101550002C0600203406002080B5A4B000AF7860CF
:10156000002387F88F305E4B1B78052B00F2AD808F
:1015700001A252F823F000BF91150408EF150408EA
:10158000551604089F160408B7160408CB1604085D
:101590005449554800F0A2FC4FF47A73184602F003
:1015A000D7FB41F288339BB2184600F0C1FC0346DA
:1015B000022B0FD14B494D4800F090FC4FF47A7349
:1015C000184602F0C5FB464B01221A70484B002218
:1015D0001A707CE044F620639BB2184600F0A8FC29
:1015E0000346032B73D13E4B05221A706FE07868D7
:1015F000FEF74EFE024607F10C033E49184606F080
:10160000FDFC07F10C033C49184600F067FC00BFE5
:101610004FF47A739BB2184600F08AFC0346012B04
:10162000F6D0364B1B78022B05D02D4B05221A70B5
:101630002F4B00221A70786800F0B6FC41F2883314
:10164000184602F085FB2A4B00221A70244B022216
:101650001A703FE023492A4800F040FC00BF44F6DE
:1016600020639BB2184600F063FC0346012BF6D0C2
:10167000224B1B78022B06D0194B05221A701C4BEB
:1016800000221A7026E044F62063184602F060FB40
:10169000134B03221A70164B00221A701AE000F046
:1016A00051F90346002B14D0114B00221A700C4B39
:1016B00004221A700DE00A4B00221A700C4B002213
:1016C0001A70012387F88F3004E000BF02E000BFEA
:1016D00000E000BF97F88F3018469037BD4680BDB8
:1016E00035060020D8AA040894AD0408ACAD04085F
:1016F00021050020C8AD0408DCAD04083C360020FC
:10170000E4AD040880B584B000AF114BFB60114B11
:101710001B6803F1774303F57403BB60B86800F0FE
:101720001BF8034683F00103DBB2002B01D000233A
:101730000AE0B968F86800F01FF878607B68002B51
:101740000CBF01230023DBB218461037BD4680BD15
:1017500000000C080800002080B483B000AF78605F
:101760007B68042B8CBF01230023DBB218460C37A7
:10177000BD465DF8047B704780B487B000AF7860E9
:1017800039604FF0FF337B6100233B611FE07A68D3
:101790003B6913441B781B067A6953407B61002325
:1017A000FB600EE07B69002B05DA7B695A000D4B6C
:1017B00053407B6102E07B695B007B61FB68013326
:1017C000FB60FB68072BEDD93B6901333B613A694C
:1017D0003B689A42DBD37B6918461C37BD465DF8EF
:1017E000047B7047B71DC10480B582B000AF0B49C0
:1017F0000B4800F011FA0B4B7B603B1D042219468D
:10180000074800F057FA0346002B01D0002300E000
:10181000012318460837BD4680BD00BF00000308FD
:1018200000000208EFBEADDE80B500AF384B1B787C
:10183000013B052B63D801A252F823F05518040888
:1018400081180408AB180408DF180408FF180408FE
:10185000EB1804082F4B1B7883F00103DBB2002B3D
:101860004FD02C4B01221A702B48FFF775FE034610
:10187000002B46D0264B02221A7000F057F840E0A9
:10188000264B1B7883F00103DBB2002B3BD0234BAC
:1018900001221A70FFF736FF0346002B33D01C4B92
:1018A00003221A7000F042F82DE01D4B1B7883F0E4
:1018B0000103DBB2002B28D0194B01221A70FFF76D
:1018C00093FF0346002B20D002F080FC104B042233
:1018D0001A70134B00221A7000F028F815E0114915
:1018E000114800F0FBFAFFF743FB0A4B00221A7085
:1018F0000A4B00221A700A4B00221A7006E000BF41
:1019000004E000BF02E000BF00E000BF00BF80BDF8
:1019100034060020210500201402002022050020AA
:1019200023050020F4AD040804AE040880B400AF21
:10193000034B00221A6000BFBD465DF8047B704770
:101940003006002080B58AB000AF002387F827302A
:10195000032387F82330002387F8263004E14FF073
:101960000161914800F058F90346002B05D097F823
:101970002630013387F82630F6E0002387F825303B
:10198000002387F82430894B1B7883F00103DBB2F6
:10199000002B00F089808649864800F09FFA00BF3E
:1019A00044F620639BB2184600F0C2FA0346012BAE
:1019B000F6D0814B1B78022B04D0804B05221A7085
:1019C0000023ECE000F040FA784B01221A706BE043
:1019D0007B4B1A687B4B1B681A447A4B1B68C3F518
:1019E000805319461046FFF7B5FCF861FB69002BE0
:1019F00060D0744B1A68FB691344724A136000F09C
:101A00005BFA0346002B57D16D4B1B686D4A126879
:101A10001146184600F0DCF80346002B44D097F836
:101A20002430002B3CD0012387F82530644B1B6801
:101A3000644A12681146184600F018FA0246604BD4
:101A40001B68D31A1A465F4B1A605D4B1B68BB615B
:101A50005D4B1B685A4A13605B4ABB691360594B64
:101A60001B6803F003037B61564B1A687B69D31A2A
:101A70003B61564B1B68544A11683A69184600F09E
:101A800019F90346002B01D0002388E04F4B1A6858
:101A90003B6913444D4A13604A4A7B6913600CE06A
:101AA000012387F8243008E0464B1B68B3F5805FBC
:101AB0008ED302E000BF00E000BF414B1B68FB601B
:101AC000414B1B683E4A13603F4AFB6813603D4B25
:101AD0001B6803F00303BB603A4B1A68BB68D31A58
:101AE0007B603A4B1B68384A11687A68184600F0E8
:101AF000E1F80346002B01D0002350E0334B1A6875
:101B00007B681344314A1360BB68002B09D02E4B0D
:101B100018682D4B1A687B681344BA68194606F09A
:101B2000E0FA284ABB68136097F8253083F0010378
:101B3000DBB2002B7FF427AF97F82530002B0BD0BA
:101B400000F0BAF9034683F00103DBB2002B03D0A7
:101B5000012387F8273007E0144B00221A7097F80A
:101B60002630013387F8263097F8273083F00103B9
:101B7000DBB2002B06D097F8262097F823309A4244
:101B8000FFF4EDAE97F82730002B04D00B4B042266
:101B90001A70012303E0094B05221A70002318462E
:101BA0002837BD4680BD00BF00000C08240500207A
:101BB00014AE040820AE04083C3600203506002090
:101BC000000000203836002004000020080000201B
:101BD00080B584B000AF786039600023FB600FE00F
:101BE0007A68FB68134406220A49184606F069FA27
:101BF0000346002B01D1012308E0FB680133FB60A1
:101C00003B680133FA689A42EAD30023184610373A
:101C1000BD4680BD58AD040880B58AB000AF78607D
:101C2000396002F0B1FA034687F8273097F8273079
:101C3000002B05D01E4B00221A7097F8273033E096
:101C400000233B6102233B62786800F08DF8034675
:101C5000BB61386800F088F80246BB69D31A0133CB
:101C6000FB6107F10C0207F110031146184602F060
:101C7000EDFB034687F8273097F82730002B05D077
:101C80000B4B00221A7097F827300DE002F09EFAF5
:101C900097F82730002B05D0054B00221A7097F8D3
:101CA000273001E097F8273018462837BD4680BD19
:101CB00023050020B0B586B000AFF860B9607A6047
:101CC00002F062FA0346FB75FB7D002B04D0254B26
:101CD00000221A70FB7D40E000233B612CE0FA6893
:101CE0003B69D118BA683B6913441B6800221C4643
:101CF000154622462B46022002F0F2F90346FB75F8
:101D0000FA683B6913441A68B9683B690B441B685D
:101D10009A4206D0134B00221A7002F057FA0123A0
:101D2000FB75FB7D002B04D00E4B00221A70FB7D4F
:101D300013E03B6904333B613A697B689A42CED336
:101D400002F044FA0346FB75FB7D002B04D0054BE3
:101D500000221A70FB7D00E0FB7D18461837BD4657
:101D6000B0BD00BF2305002080B485B000AF78600F
:101D70007B682A4A934202D20023FB6047E07B68DB
:101D8000274A934202D20123FB6040E07B68254A48
:101D9000934202D20223FB6039E07B68224A9342DD
:101DA00002D80323FB6032E07B68204A934202D8CA
:101DB0000423FB602BE07B681D4A934202D8052375
:101DC000FB6024E07B681B4A934202D80623FB6039
:101DD0001DE07B68184A934202D80723FB6016E097
:101DE0007B68164A934202D80823FB600FE07B68A9
:101DF000134A934202D80923FB6008E07B68114A2A
:101E0000934202D80A23FB6001E00B23FB60FB68CE
:101E100018461437BD465DF8047B70470040000843
:101E20000080000800C00008FFFF0008FFFF010855
:101E3000FFFF0308FFFF0508FFFF0708FFFF090872
:101E4000FFFF0B08FFFF0D0880B400AF064B002218
:101E5000A3F80021044B0022A3F8022100BFBD46D5
:101E60005DF8047B704700BF2805002080B584B072
:101E700000AF786039600023FB6011E07A68FB688E
:101E8000134406220B49184606F01BF90346002BA3
:101E900003D17A68FB68134408E0FB680133FB60F8
:101EA0003B68053BFA689A42E8D30023184610378E
:101EB000BD4680BD58AD040880B500AF0549064851
:101EC00006F063F90346002B01D0012300E0002354
:101ED000184680BD34AE04082805002080B582B0C5
:101EE00000AF786039604FF4807200210B4806F033
:101EF00012F9786800F058F8094800F055F8094BD5
:101F000001221A70084A3B68136000F063F8034628
:101F1000064A136000BF0837BD4680BD2805002073
:101F20005CAE04083C3600204036002044360020D9
:101F300080B584B000AF0346FB80164B1B78012BA5
:101F400021D1154B1B78DBB2002B0FD0134B1B6834
:101F50001946134806F019F90346002B02D00D4B21
:101F600002221A700C4B00221A700CE000F032F8BA
:101F7000F8600C4B1B68FA68D21AFB889A4202D3AD
:101F8000044B03221A70034B1B7818461037BD46CA
:101F900080BD00BF3C3600201805002040360020E0
:101FA000382600204436002080B582B000AF78602B
:101FB0007868FEF76DF903469AB24FF47A73796840
:101FC000034803F0CDFB00BF0837BD4680BD00BF0E
:101FD000FC36002080B500AF01F0AEFE0346184687
:101FE00080BD000080B485B000AF786039607B6848
:101FF000002B02D03B68002B01D1012356E07A6808
:102000003B689A420DD1002350E07B681B78002B7F
:1020100001D100234AE07B6801337B603B680133D8
:102020003B607B681B78FB73FB7B0133224A1344C4
:102030001B7803F00303012B03D1FB7B03F1200288
:1020400000E0FA7B3B681B78BB73BB7B01331A490A
:102050000B441B7803F00303012B02D1BB7B20331D
:1020600000E0BB7B9A42D0D07B681B787B737B7B84
:102070000133114A13441B7803F00303012B03D1EE
:102080007B7B03F1200200E07A7B3B681B783B738B
:102090003B7B013308490B441B7803F00303012BFE
:1020A00002D13B7B203300E03B7BD31A1846143728
:1020B000BD465DF8047B704718AF040880B584B056
:1020C00000AF78607B681B6828209847F860FB6841
:1020D000002B04D028220021F86806F01CF8FB68C9
:1020E00018461037BD4680BD80B584B000AF78601B
:1020F0000023FB6037E07B681B68FB607B68DB6864
:1021000003F48073002B08D17B689B68002B04D0FC
:102110007B689B681846FFF7E7FF7B68DB6803F482
:102120008073002B09D17B681B69002B05D0124BF3
:102130005B687A681269104698477B68DB6803F42D
:102140000073002B09D17B681B6A002B05D00A4B5A
:102150005B687A68126A10469847074B5B68786834
:102160009847FB687B607B68002BC4D100BF00BF31
:102170001037BD4680BD00BF1800002080B400AFFE
:102180002E231846BD465DF8047B70470000000012
:1021900080B598B000AF786039604FF000024FF022
:1021A0000003C7E914230023BB64FFF7E7FF0346DE
:1021B00087F84F300023FB653B68002B03D03B685A
:1021C0001B68002B01D10023A0E00023FB653DE04C
:1021D0003B681A683B689968FB6D0B4413441B7895
:1021E000452B17DC2B2B40DB2B3B01229A404C4B21
:1021F0001340002B14BF01230023DBB2002B0BD1B3
:1022000002F00803002B14BF01230023DBB2002BD4
:1022100011D12AE0652B28D13B681A683B68996880
:10222000FB6D0B441344197807F10802FB6D13444E
:102230000A461A7007E007F10802FB6D134497F88D
:102240004F201A7000BFFB6D0133FB65FB6D3E2B09
:102250000DD83B68002B0AD03B689A68FB6D1A4486
:102260003B685B689A42B3D301E000BF00E000BF67
:1022700007F10802FB6D134400221A7007F14802AF
:1022800007F108031146184605F096F987ED140B7F
:10229000BA6C07F108039A4201D1002336E079684D
:1022A000D7E91423C1E906231BA3D3E90023D7E907
:1022B0001401FEF737FC0346002B04D07B686FF057
:1022C00000425A6115E04FF00002164BD7E91401A5
:1022D000FEF71EFC0346002B04D07B684FF0004243
:1022E0005A6106E0D7E91401FEF746FC02467B6816
:1022F0005A617B680822DA603B689B68B96C07F119
:1023000008028A1A1A443B689A600123184660370B
:10231000BD4680BDAFF300800000C0FFFFFFDF417E
:10232000E57F00040000E0C180B485B000AF7860B4
:102330000023FB600023BB600023BB604CE07A6895
:10234000BB6813441B782F2B0FD97A68BB681344E2
:102350001B78392B09D87A68BB6813441B781A4656
:10236000FB681344303BFB602DE07A68BB68134484
:102370001B78402B0FD97A68BB6813441B78462B17
:1023800009D87A68BB6813441B781A46FB68134463
:10239000373BFB6017E07A68BB6813441B78602BFF
:1023A0000FD97A68BB6813441B78662B09D87A6802
:1023B000BB6813441B781A46FB681344573BFB6009
:1023C00001E000230CE0BB68022B02D8FB681B0174
:1023D000FB60BB680133BB60BB68032BAFD9FB68F4
:1023E00018461437BD465DF8047B704780B58AB047
:1023F00000AFF860B9607A6000237B620023FB6164
:10240000FB68BB61002387F82330002387F8223064
:10241000002387F82130002387F82030BA68BB6991
:10242000D31A052B40F3B780BB6902331846FFF778
:102430007BFFF861FB69B3F55C4F04D3FB69B3F52F
:10244000604FC0F0AA80FB69B3F5584F37D3FB69E2
:10245000B3F55C4F33D2BB6906337B6100233B612C
:102460000C2387F82130BA687B69D31A052B40F317
:1024700096807B691B785C2B40F093807B690133ED
:102480001B78752B40F08D807B6902331846FFF76F
:102490004BFF38613B69B3F55C4FC0F084803B690A
:1024A000B3F5604F7FD2FB699A02434B13403A6900
:1024B000C2F30902134303F580337B6204E0062371
:1024C00087F82130FB697B627B6A7F2B03D801236D
:1024D00087F823301FE07B6AB3F5006F06D2022332
:1024E00087F82330C02387F8203014E07B6AB3F5E7
:1024F000803F06D2032387F82330E02387F820307B
:1025000009E07B6AB3F5881F4FD2042387F8233094
:10251000F02387F8203097F82330013B87F82230EA
:1025200015E07B6ADBB203F03F03DAB27B6819681F
:1025300097F822300B4462F07F02D2B21A707B6AA5
:102540009B097B6297F82230013B87F8223097F88D
:102550002230002BE5D197F82330012B09D97B6A73
:10256000D9B27B681B6897F820200A43D2B21A7050
:1025700007E07B6ADAB27B681B6802F07F02D2B2A6
:102580001A707B681A6897F823301A447B681A60BF
:1025900097F821300BE000BF08E000BF06E000BF65
:1025A00004E000BF02E000BF00E000BF00231846C7
:1025B0002837BD4680BD00BF00FC0F0080B58AB043
:1025C00000AF786039603B681A683B689B680133EC
:1025D00013447B623B681A683B689B680133134471
:1025E0003B620023FB600023FB613B681A683B6889
:1025F0009B6813441B78222B40F0038100233B612E
:102600000023BB6117E03B6A1B785C2B10D13B6A4F
:102610005A1C3B681B68D31A1A463B685B689A428F
:1026200080F0F180BB690133BB613B6A01333B62DF
:102630003B6A01333B623B681B683A6AD31A1A460D
:102640003B685B689A4203D23B6A1B78222BDAD143
:102650003B681B683A6AD31A1A463B685B689A4221
:1026600080F0D3803B6A1B78222B40F0CE803B6801
:102670001A683B689B6813443A6AD31A1A46BB69C6
:10268000D31A3B613B681B693A690132104698478F
:10269000F861FB69002B00F0BA80FB69FB6094E0F5
:1026A0007B6A1B785C2B08D07A6A531C7B62FB68C0
:1026B000591CF96012781A7087E00223FB753A6A98
:1026C0007B6AD31A002B40F3A4807B6A01331B780A
:1026D000752B00F3A0805C2B04DA222B5CD02F2B0F
:1026E0005AD098E05C3B192B00F2958001A252F879
:1026F00023F000BF992704081728040817280408A6
:102700001728040817280408172804085D27040858
:10271000172804081728040817280408692704083C
:10272000172804081728040817280408172804087D
:102730001728040817280408172804087527040810
:1027400017280408172804081728040881270408F4
:10275000172804088D270408A9270408FB685A1CB9
:10276000FA6008221A702CE0FB685A1CFA600C22EE
:102770001A7026E0FB685A1CFA600A221A7020E0E0
:10278000FB685A1CFA600D221A701AE0FB685A1C8A
:10279000FA6009221A7014E07B6A5A1CFB68591C03
:1027A000F96012781A700CE007F10C031A46396AC6
:1027B000786AFFF71BFE0346FB75FB7D002B2CD0D0
:1027C00000BFFB7D7A6A13447B627A6A3B6A9A4255
:1027D000FFF466AFFB6800221A707B681022DA6093
:1027E0007B68FA691A613B681B683A6AD31A1A4611
:1027F0003B689A603B689B685A1C3B689A6001235F
:102800001EE000BF0AE000BF08E000BF06E000BF16
:1028100004E000BF02E000BF00E000BFFB69002B46
:1028200003D03B685B69F86998477B6A002B06D048
:102830003B681B687A6AD31A1A463B689A60002381
:1028400018462837BD4680BD80B483B000AF78609D
:102850007B68002B03D07B681B68002B01D1002311
:102860002CE07B68002B05D07B689A687B685B68EE
:102870009A4206D37B6821E07B689B685A1C7B6880
:102880009A607B68002B0DD07B689A687B685B68D8
:102890009A4207D27B681A687B689B6813441B784E
:1028A000202BE9D97B689A687B685B689A4204D1DF
:1028B0007B689B685A1E7B689A607B6818460C3759
:1028C000BD465DF8047B704780B582B000AF78608C
:1028D0007B68002B07D07B681B68002B03D07B68CC
:1028E0009B68002B01D000231CE07B68002B18D0D4
:1028F0007B689B681A1D7B685B689A4211D27B6873
:102900001A687B689B68134403220849184605F03F
:1029100017FC0346002B04D17B689B68DA1C7B689C
:102920009A607B6818460837BD4680BD98AE04089B
:1029300080B586B000AFF860B9607A60FB68002BA4
:1029400001D100230CE0F868FDF7A2FC0346013337
:102950007B617B68BA687969F86800F005F803461E
:1029600018461837BD4680BD80B58EB000AFF86000
:10297000B9607A603B6007F1180300221A605A6060
:102980009A60DA601A615A619A6100237B63414B55
:1029900000221A603F4B00225A60FB68002B42D095
:1029A000BB68002B3FD0FB68BB61BB68FB610023A9
:1029B0003B62394A07F1280307CA83E80700364813
:1029C000FFF77CFB78637B6B002B2ED007F118039D
:1029D0001846FFF779FF03461846FFF735FF034611
:1029E0001946786B00F068F80346002B1FD03B684F
:1029F000002B0ED007F118031846FFF725FF3A6A9F
:102A0000FB699A4215D2BA693B6A13441B78002BC2
:102A10000FD17B68002B04D0BA693B6A1A447B68EB
:102A20001A607B6B31E000BF04E000BF02E000BF32
:102A300000E000BF7B6B002B02D0786BFFF754FBEC
:102A4000FB68002B20D0FB683B6100237B613A6A66
:102A5000FB699A4202D23B6A7B6105E0FB69002B6D
:102A600002D0FB69013B7B617B68002B04D03A6993
:102A70007B691A447B681A60064B1A4607F11003FB
:102A800093E8030082E80300002318463837BD4668
:102A900080BD00BF483600201800002080B582B0FD
:102AA00000AF7860002200217868FFF741FF0346FD
:102AB00018460837BD4680BD80B582B000AF78604B
:102AC00039603B68002B03D03B681B68002B01D1A9
:102AD0000023D2E03B68002B1DD03B689B681A1D89
:102AE0003B685B689A4216D83B681A683B689B68EB
:102AF000134404226349184605F022FB0346002BC9
:102B000009D17B680422DA603B689B681A1D3B6828
:102B10009A600123B1E03B68002B1DD03B689B68A5
:102B20005A1D3B685B689A4216D83B681A683B6836
:102B30009B68134405225449184605F001FB0346DF
:102B4000002B09D17B680122DA603B689B685A1D23
:102B50003B689A60012390E03B68002B20D03B68E3
:102B60009B681A1D3B685B689A4219D83B681A68D3
:102B70003B689B68134404224449184605F0E0FA78
:102B80000346002B0CD17B680222DA607B680122AD
:102B90005A613B689B681A1D3B689A6001236CE090
:102BA0003B68002B13D03B689A683B685B689A428D
:102BB0000DD23B681A683B689B6813441B78222B34
:102BC00005D139687868FFF7F9FC034655E03B68A2
:102BD000002B23D03B689A683B685B689A421DD201
:102BE0003B681A683B689B6813441B782D2B0FD0F9
:102BF0003B681A683B689B6813441B782F2B0DD9E0
:102C00003B681A683B689B6813441B78392B05D8CE
:102C100039687868FFF7BCFA03462EE03B68002B62
:102C200013D03B689A683B685B689A420DD23B6858
:102C30001A683B689B6813441B785B2B05D1396885
:102C4000786800F025F8034617E03B68002B13D0A6
:102C50003B689A683B685B689A420DD23B681A6889
:102C60003B689B6813441B787B2B05D139687868D7
:102C700000F0D2F8034600E0002318460837BD46AE
:102C800080BD00BF6CAE04089CAE0408A4AE04086E
:102C900080B586B000AF7860396000237B61002387
:102CA0003B613B68DB68B3F57A7F01D30023AFE07B
:102CB0003B68DB685A1C3B68DA603B681A683B6813
:102CC0009B6813441B785B2B40F094803B689B68A7
:102CD0005A1C3B689A603868FFF7B6FD3B68002BCA
:102CE0000DD03B689A683B685B689A4207D23B68A4
:102CF0001A683B689B6813441B785D2B61D03B6866
:102D0000002B05D03B689A683B685B689A4205D304
:102D10003B689B685A1E3B689A6072E03B689B6800
:102D20005A1E3B689A603B6810331846FFF7C6F995
:102D3000F860FB68002B5FD07B69002B04D1FB6837
:102D40007B617B693B6107E03B69FA681A60FB685D
:102D50003A695A60FB683B613B689B685A1C3B6858
:102D60009A603868FFF770FD39683869FFF7A4FE8C
:102D70000346002B42D03868FFF766FD3B68002B06
:102D80000DD03B689A683B685B689A4207D23B6803
:102D90001A683B689B6813441B782C2BC3D03B6894
:102DA000002B2DD03B689A683B685B689A4227D21B
:102DB0003B681A683B689B6813441B785D2B1FD1E6
:102DC00000E000BF3B68DB685A1E3B68DA607B6945
:102DD000002B02D07B693A695A607B682022DA6056
:102DE0007B687A699A603B689B685A1C3B689A606A
:102DF00001230DE000BF04E000BF02E000BF00E0DF
:102E000000BF7B69002B02D07869FFF76DF90023C2
:102E100018461837BD4680BD80B586B000AF7860D3
:102E2000396000237B6100233B613B68DB68B3F5BD
:102E30007A7F01D30023EAE03B68DB685A1C3B68D9
:102E4000DA603B68002B00F0D0803B689A683B68F2
:102E50005B689A4280F0C9803B681A683B689B684F
:102E600013441B787B2B40F0C0803B689B685A1C46
:102E70003B689A603868FFF7E7FC3B68002B0ED090
:102E80003B689A683B685B689A4208D23B681A685C
:102E90003B689B6813441B787D2B00F08D803B685A
:102EA000002B05D03B689A683B685B689A4205D363
:102EB0003B689B685A1E3B689A60A1E03B689B6830
:102EC0005A1E3B689A603B6810331846FFF7F6F8C5
:102ED000F860FB68002B00F08A807B69002B04D12E
:102EE000FB687B617B693B6107E03B69FA681A60BC
:102EF000FB683A695A60FB683B613B689B685A1CF7
:102F00003B689A603868FFF79FFC39683869FFF7BB
:102F100055FB0346002B6CD03868FFF795FC3B69E6
:102F20001A693B691A623B6900221A613B68002BEF
:102F300061D03B689A683B685B689A425BD23B68A9
:102F40001A683B689B6813441B783A2B53D13B6843
:102F50009B685A1C3B689A603868FFF775FC3968B3
:102F60003869FFF7A9FD0346002B46D03868FFF704
:102F70006BFC3B68002B0DD03B689A683B685B6834
:102F80009A4207D23B681A683B689B6813441B78D7
:102F90002C2B98D03B68002B31D03B689A683B685B
:102FA0005B689A422BD23B681A683B689B68134463
:102FB0001B787D2B23D100E000BF3B68DB685A1EE5
:102FC0003B68DA607B69002B02D07B693A695A6002
:102FD0007B684022DA607B687A699A603B689B680C
:102FE0005A1C3B689A60012311E000BF08E000BF53
:102FF00006E000BF04E000BF02E000BF00E000BF49
:103000007B69002B02D07869FFF76EF80023184621
:103010001837BD4680BD80B586B000AFF860B96096
:103020007A6000237B61FB68002B02D0BB68002B19
:1030300001D1002333E0FB689B687B617B68002B38
:1030400017D002E07B691B687B617B69002B1CD079
:103050007B691B6A002B18D07B691B6A1946B8680C
:10306000FDF7B6F80346002BECD10EE07B691B6838
:103070007B617B69002B08D07B691B6A1946B868A5
:10308000FEF7B0FF0346002BF0D17B69002B03D085
:103090007B691B6A002B01D1002300E07B69184685
:1030A0001837BD4680BD80B582B000AF786039600A
:1030B000002239687868FFF7AEFF034618460837E4
:1030C000BD4680BD80B400AF0B4B1B6B0A4A43F07A
:1030D00008031363094B1B68084A23F0407313600D
:1030E000064B1B68054A43F08073136000BFBD4662
:1030F0005DF8047B704700BF00380240000C0240BE
:1031000080B400AF054B5B69044A83F4805353617C
:1031100000BFBD465DF8047B704700BF000C024055
:1031200080B500AF0E4B0F4A9A6000F09FFDFFF78D
:10313000C9FF00F019F800F039F900F07FF800F04D
:10314000ABF800F0DFF800F007F900F06BFAFEF7DB
:103150006BFBFFF7D5FF4FF47A7000F0F9FDF6E74F
:1031600000ED00E00000040880B594B000AF07F166
:10317000200330220021184604F0CDFF07F10C0394
:1031800000221A605A609A60DA601A610023BB60FC
:10319000284B1B6C274A43F080531364254B1B6C50
:1031A00003F08053BB60BB6800237B60224B1B682D
:1031B000214A43F4804313601F4B1B6803F4804390
:1031C0007B607B6801233B624FF480337B62022388
:1031D000BB634FF48003FB6308233B644FF4A87385
:1031E0007B640223BB640723FB6407F120031846BA
:1031F00001F048FD0346002B01D000F027FA0F2311
:10320000FB6002233B6100237B614FF4A053BB6151
:103210004FF48053FB6107F10C030521184601F0C0
:10322000A9FF0346002B01D000F010FA00BF503771
:10323000BD4680BD003802400070004080B500AF40
:10324000124B134A1A60114B124A5A600F4B00225C
:103250009A600E4B0022DA600C4B4FF480421A61E8
:103260000A4B00225A61094B00229A61074B002247
:10327000DA61064B00221A62044801F0BFFB0346E4
:10328000002B01D000F0E2F900BF80BD50360020D5
:1032900000540040A086010080B500AF174B184ACB
:1032A0001A60164B4FF482725A60144B00229A60D7
:1032B000124B0022DA60114B00221A610F4B0022E0
:1032C0005A610E4B4FF400729A610C4B0022DA6186
:1032D0000A4B00221A62094B00225A62074B002255
:1032E0009A62064B0A22DA62044802F063F9034646
:1032F000002B01D000F0AAF900BF80BDA436002049
:103300000030014080B500AF114B124A1A60104BDB
:103310004FF4E1325A600E4B00229A600C4B0022AF
:10332000DA600B4B00221A61094B0C225A61084BE0
:1033300000229A61064B0022DA61054802F0C3F9C7
:103340000346002B01D000F081F900BF80BD00BF13
:10335000FC3600200044004080B500AF114B124AFB
:103360001A60104B4FF4E1325A600E4B00229A6003
:103370000C4B0022DA600B4B00221A61094B0C2225
:103380005A61084B00229A61064B0022DA61054817
:1033900002F099F90346002B01D000F057F900BF65
:1033A00080BD00BF403700200048004080B58CB091
:1033B00000AF07F11C0300221A605A609A60DA60BD
:1033C0001A610023BB61914B1B6B904A43F01003C1
:1033D00013638E4B1B6B03F01003BB61BB690023AF
:1033E0007B618A4B1B6B894A43F004031363874B51
:1033F0001B6B03F004037B617B6900233B61834B00
:103400001B6B824A43F080031363804B1B6B03F0FA
:1034100080033B613B690023FB607C4B1B6B7B4A59
:1034200043F001031363794B1B6B03F00103FB6053
:10343000FB680023BB60754B1B6B744A43F00203AF
:103440001363724B1B6B03F00203BB60BB6800236A
:103450007B606E4B1B6B6D4A43F0080313636B4B31
:103460001B6B03F008037B607B680022082168481F
:1034700001F0AAFA01220121664801F0A5FA002212
:103480004FF21001644801F09FFA0823FB61012309
:103490003B6200237B620023BB6207F11C031946D9
:1034A0005B4801F0F5F80123FB6101233B62002337
:1034B0007B620023BB6207F11C031946554801F0EB
:1034C000E7F80823FB6102233B6200237B620023B1
:1034D000BB620523FB6207F11C0319464D4801F04E
:1034E000D7F80123FB614FF490133B6200237B620A
:1034F00007F11C031946494801F0CAF81023FB6183
:1035000002233B6200237B620023BB620623FB6233
:1035100007F11C031946414801F0BAF80423FB6186
:1035200000233B6200237B6207F11C0319463C48E1
:1035300001F0AEF84FF48063FB6102233B6200238D
:103540007B620023BB620523FB6207F11C03194663
:10355000334801F09DF84FF21003FB6101233B62F9
:1035600000237B620023BB6207F11C0319462A4833
:1035700001F08EF84FF4A453FB6102233B62002359
:103580007B620023BB620623FB6207F11C03194622
:10359000204801F07DF84FF40073FB6100233B628B
:1035A00000237B6207F11C0319461C4801F070F8E8
:1035B0004FF4E053FB6102233B6200237B62002354
:1035C000BB620A23FB6207F11C031946134801F092
:1035D0005FF82023FB6100233B6200237B6207F13D
:1035E0001C0319460C4801F053F80223FB614FF409
:1035F00090133B6200237B6207F11C0319460448C9
:1036000001F046F800BF3037BD4680BD00380240AB
:103610000010024000080240000C0240000002407E
:103620000004024080B500AF01220649064802F0BE
:1036300029F9FDF7DBFCFDF7A3FDFDF70FFE00BF49
:1036400080BD00BF19050020FC36002080B400AF0B
:1036500072B600BFFEE7000080B582B000AF002365
:103660007B60104B5B6C0F4A43F4804353640D4BFB
:103670005B6C03F480437B607B6800233B60094BF9
:103680001B6C084A43F080531364064B1B6C03F019
:1036900080533B603B68072000F04EFC00BF0837BA
:1036A000BD4680BD0038024080B58AB000AF78606A
:1036B00007F1140300221A605A609A60DA601A61F6
:1036C0007B681B68194A93422CD100233B61184B3D
:1036D0001B6B174A43F002031363154B1B6B03F07C
:1036E00002033B613B694FF410737B611223BB61A2
:1036F0000123FB6100233B6204237B6207F1140377
:1037000019460C4800F0C4FF0023FB60084B1B6CFB
:10371000074A43F400131364054B1B6C03F40013B6
:10372000FB60FB6800BF2837BD4680BD00540040E9
:10373000003802400004024080B58AB000AF7860D3
:1037400007F1140300221A605A609A60DA601A6165
:103750007B681B68194A93422BD100233B61184BAD
:103760005B6C174A43F480535364154B5B6C03F452
:1037700080533B613B690023FB60114B1B6B104A7C
:1037800043F0010313630E4B1B6B03F00103FB605B
:10379000FB68E0237B610223BB610023FB61002304
:1037A0003B6205237B6207F114031946054800F0CC
:1037B0006FFF00BF2837BD4680BD00BF003001400D
:1037C000003802400000024080B58CB000AF786045
:1037D00007F11C0300221A605A609A60DA601A61CD
:1037E0007B681B684A4A934234D10023BB61494B32
:1037F0001B6C484A43F400331364464B1B6C03F4C0
:103800000033BB61BB6900237B61424B1B6B414AA8
:1038100043F0010313633F4B1B6B03F001037B6118
:103820007B690C23FB6102233B6200237B62032341
:10383000BB620723FB6207F11C031946364800F000
:1038400027FF00220021262000F081FB262000F027
:103850009AFB58E07B681B68304A934253D100239F
:103860003B612C4B1B6C2B4A43F480231364294B84
:103870001B6C03F480233B613B690023FB60254BF9
:103880001B6B244A43F002031363224B1B6B03F0B0
:103890000203FB60FB680023BB601E4B1B6B1D4AD1
:1038A00043F0080313631B4B1B6B03F00803BB605F
:1038B000BB684FF40063FB6102233B6200237B6221
:1038C0000323BB620723FB6207F11C03194614485C
:1038D00000F0DEFE4FF48073FB6102233B620023A5
:1038E0007B620323BB620723FB6207F11C031946BB
:1038F0000C4800F0CDFE00220021272000F027FB1D
:10390000272000F040FB00BF3037BD4680BD00BF20
:1039100000440040003802400000024000480040DF
:1039200000040240000C024080B400AFFEE780B407
:1039300000AFFEE780B400AFFEE780B400AFFEE763
:1039400080B400AFFEE780B400AF00BFBD465DF8B5
:10395000047B704780B400AF00BFBD465DF8047BB8
:10396000704780B400AF00BFBD465DF8047B704770
:1039700080B500AF00F0CCF900BF80BD80B500AFCE
:10398000024801F0AFFF00BF80BD00BFFC36002041
:1039900080B500AF024801F0A5FF00BF80BD00BFA9
:1039A0004037002080B582B000AF78607B681B682C
:1039B000274A934248D1274BB3F800311A46264B89
:1039C0001978244B9954234BB3F8003101339AB240
:1039D000204BA3F800211F4BB3F80031FF2B03D974
:1039E0001C4B0022A3F800211A4BB3F80021194BFD
:1039F000B3F802319A4210D1164BB3F802310133B9
:103A00009AB2144BA3F80221124BB3F80231FF2BE8
:103A100003D9104B0022A3F80221104B1B78012B75
:103A200005D10D4B1B781846FDF716FD04E00A4B37
:103A30001B781846FDF7D6FC01220749084801F01B
:103A400021FF084B01221A7000BF0837BD4680BD18
:103A50000044004028050020190500202C06002005
:103A6000FC3600201805002080B400AF0123184662
:103A7000BD465DF8047B704780B582B000AF7860CA
:103A8000396004F0F3FB034616221A604FF0FF334F
:103A900018460837BD4680BD80B582B000AF78605B
:103AA0004FF0FF317868FFF7E7FFFEE780B586B09B
:103AB00000AFF860B9607A6000237B610AE0AFF381
:103AC00000800146BB685A1CBA60CAB21A707B6992
:103AD00001337B617A697B689A42F0DB7B68184628
:103AE0001837BD4680BD80B586B000AFF860B960BC
:103AF0007A6000237B6109E0BB685A1CBA601B78BE
:103B00001846AFF300807B6901337B617A697B687B
:103B10009A42F1DB7B6818461837BD4680BD80B4F9
:103B200083B000AF78604FF0FF3318460C37BD46C6
:103B30005DF8047B704780B483B000AF7860396073
:103B40003B684FF400525A60002318460C37BD46BC
:103B50005DF8047B704780B483B000AF78600123C8
:103B600018460C37BD465DF8047B704780B485B0BD
:103B700000AFF860B9607A60002318461437BD467C
:103B80005DF8047B7047000080B586B000AF7860B8
:103B9000144A154BD31A7B617B693B61134B1B683D
:103BA000002B02D1114B124A1A60104B1A687B6825
:103BB00013443A699A4207D204F058FB03460C2298
:103BC0001A604FF0FF3309E0084B1B68FB60074B9E
:103BD0001A687B681344054A1360FB681846183757
:103BE000BD4680BD00000220000400008437002094
:103BF000F838002080B400AF064BD3F88830054A6F
:103C000043F47003C2F8883000BFBD465DF8047B02
:103C1000704700BF00ED00E0DFF834D00D480E49DA
:103C20000E4A002302E0D458C4500433C4188C4216
:103C3000F9D30B4A0B4C002301E013600432A2427B
:103C4000FBD3FFF7D7FF04F017FBFFF769FA7047C4
:103C50000000022000000020F8010020FCB204084F
:103C6000F8010020F8380020FEE7000080B500AF22
:103C70000E4B1B680D4A43F4007313600B4B1B681B
:103C80000A4A43F480631360084B1B68074A43F4F5
:103C900080731360032000F04FF9002000F008F853
:103CA000FFF7DAFC0023184680BD00BF003C02404D
:103CB00080B582B000AF7860124B1A68124B1B7847
:103CC00019464FF47A73B3FBF1F3B2FBF3F31846E2
:103CD00000F067F90346002B01D001230EE07B685A
:103CE0000F2B0AD8002279684FF0FF3000F02FF92F
:103CF000064A7B681360002300E00123184608375A
:103D0000BD4680BD240000202C000020280000209B
:103D100080B400AF064B1B781A46064B1B68134451
:103D2000044A136000BFBD465DF8047B704700BFC6
:103D30002C0000208837002080B400AF034B1B68A4
:103D40001846BD465DF8047B704700BF88370020E9
:103D500080B584B000AF7860FFF7EEFFB8607B6895
:103D6000FB60FB68B3F1FF3F05D00A4B1B781A4696
:103D7000FB681344FB6000BFFFF7DEFF0246BB6831
:103D8000D31AFA689A42F7D800BF00BF1037BD4671
:103D900080BD00BF2C00002080B485B000AF7860EB
:103DA0007B6803F00703FB600C4BDB68BB60BA6801
:103DB0004FF6FF031340BB60FB681A02BB68134356
:103DC00043F0BF6343F40033BB60044ABB68D36075
:103DD00000BF1437BD465DF8047B704700ED00E07E
:103DE00080B400AF044BDB681B0A03F007031846DE
:103DF000BD465DF8047B704700ED00E080B483B001
:103E000000AF0346FB7197F90730002B0BDBFB7902
:103E100003F01F02074997F907305B09012000FAF8
:103E200002F241F8232000BF0C37BD465DF8047B49
:103E3000704700BF00E100E080B483B000AF0346EC
:103E40003960FB7197F90730002B0ADB3B68DAB267
:103E50000C4997F907301201D2B20B4483F80023C2
:103E60000AE03B68DAB20849FB7903F00F03043B30
:103E70001201D2B20B441A7600BF0C37BD465DF872
:103E8000047B704700E100E000ED00E080B489B001
:103E900000AFF860B9607A60FB6803F00703FB616C
:103EA000FB69C3F10703042B28BF0423BB61FB6933
:103EB0000433062B02D9FB69033B00E000237B613E
:103EC0004FF0FF32BB6902FA03F3DA43BB681A40D2
:103ED0007B699A404FF0FF317B6901FA03F3D943C4
:103EE0007B680B40134318462437BD465DF8047BBE
:103EF0007047000080B582B000AF78607B68013BFE
:103F0000B3F1807F01D301230FE00A4A7B68013BB4
:103F100053600F214FF0FF30FFF78EFF054B00225B
:103F20009A60044B07221A60002318460837BD46E2
:103F300080BD00BF10E000E080B582B000AF7860C7
:103F40007868FFF729FF00BF0837BD4680BD80B500
:103F500086B000AF0346B9607A60FB7300237B61D3
:103F6000FFF73EFF78617A68B9687869FFF78EFFDE
:103F7000024697F90F3011461846FFF75DFF00BF64
:103F80001837BD4680BD80B582B000AF0346FB71D7
:103F900097F907301846FFF731FF00BF0837BD46D5
:103FA00080BD80B582B000AF78607868FFF7A2FF6F
:103FB000034618460837BD4680BD80B584B000AFC3
:103FC00078607B689B6DFB60FFF7B6FEB8607B682E
:103FD00093F83530DBB2022B08D07B6880225A651B
:103FE0007B68002283F83420012352E07B681B6841
:103FF0001A687B681B6822F016021A607B681B68CF
:104000005A697B681B6822F080025A617B681B6CCE
:10401000002B03D17B689B6C002B07D07B681B684F
:104020001A687B681B6822F008021A607B681B68AC
:104030001A687B681B6822F001021A6013E0FFF720
:104040007BFE0246BB68D31A052B0CD97B68202265
:104050005A657B68032283F835207B68002283F849
:104060003420032315E07B681B681B6803F0010301
:10407000002BE4D17B68DB6D3F229A40FB689A609D
:104080007B68012283F835207B68002283F8342086
:10409000002318461037BD4680BD80B483B000AF02
:1040A00078607B6893F83530DBB2022B04D07B68F4
:1040B00080225A6501230CE07B68052283F83520B5
:1040C0007B681B681A687B681B6822F001021A6013
:1040D000002318460C37BD465DF8047B704700008E
:1040E00080B586B000AFF860B960C7E9002301234E
:1040F000FB75234B1B7E012B01D102233BE0204BA0
:1041000001221A764CF2503000F070F80346FB752D
:10411000FB7D002B2BD1FB68002B05D13B7819468A
:10412000B86800F01BF916E0FB68012B05D13B884D
:104130001946B86800F0EEF80DE0FB68022B05D1D7
:104140003B681946B86800F0C3F804E0D7E90023DB
:10415000B86800F08BF84CF2503000F047F8034696
:10416000FB75084B1B69074A23F001031361044BDD
:1041700000221A76FB7D18461837BD4680BD00BF69
:104180008C370020003C024080B483B000AF002395
:10419000FB710B4B1B69002B0BDA094B094A5A6068
:1041A000074B094A5A60064B1B69002B01DA0123B1
:1041B000FB71FB7918460C37BD465DF8047B7047F0
:1041C000003C024023016745AB89EFCD80B400AFCE
:1041D000054B1B69044A43F0004313610023184652
:1041E000BD465DF8047B7047003C024080B584B05A
:1041F00000AF78600023FB601A4B0022DA61FFF702
:104200009BFDF86010E07B68B3F1FF3F0CD07B684A
:10421000002B07D0FFF790FD0246FB68D31A7A689F
:104220009A4201D2032319E00F4BDB6803F4803379
:10423000002BE8D10C4BDB6803F00103002B02D00C
:10424000094B0122DA60084BDB6803F0F203002B14
:1042500003D000F0A5F8012300E000231846103732
:10426000BD4680BD8C370020003C024080B485B044
:1042700000AFF860C7E90023144B1B69134A23F40D
:1042800040731361114B1B69104A43F4407313616F
:104290000E4B1B690D4A43F001031361FB683A683A
:1042A0001A60BFF36F8F00BFD7E900014FF0000223
:1042B0004FF000030A000023F968043113460B6035
:1042C00000BF1437BD465DF8047B7047003C0240D8
:1042D00080B483B000AF786039600D4B1B690C4A25
:1042E00023F4407313610A4B1B69094A43F40073BA
:1042F0001361074B1B69064A43F0010313617B6896
:104300003A681A6000BF0C37BD465DF8047B704701
:10431000003C024080B483B000AF78600B467B80E5
:104320000D4B1B690C4A23F4407313610A4B1B6944
:10433000094A43F480731361074B1B69064A43F033
:10434000010313617B687A881A8000BF0C37BD4671
:104350005DF8047B704700BF003C024080B483B02E
:1043600000AF78600B46FB700C4B1B690B4A23F4C3
:1043700040731361094B094A1B691361074B1B69A1
:10438000064A43F0010313617B68FA781A7000BF94
:104390000C37BD465DF8047B704700BF003C02400F
:1043A00080B400AF274BDB6803F01003002B08D06C
:1043B000254BDB6943F01003234AD361214B1022C4
:1043C000DA60204BDB6803F02003002B08D01E4B83
:1043D000DB6943F008031C4AD3611A4B2022DA60E0
:1043E000184BDB6803F04003002B08D0164BDB6949
:1043F00043F00403144AD361124B4022DA60114B9C
:10440000DB6803F08003002B08D00F4BDB6943F01F
:1044100002030D4AD3610B4B8022DA60094BDB6843
:1044200003F00203002B08D0074BDB6943F02003A5
:10443000054AD361034B0222DA6000BFBD465DF836
:10444000047B7047003C02408C37002080B584B06C
:1044500000AF786039600123FB730023BB60314BF0
:104460001B7E012B01D1022358E02E4B01221A762C
:104470004CF25030FFF7BAFE0346FB73FB7B002B78
:1044800048D13B684FF0FF321A607B681B68012BF4
:1044900015D17B681B69DAB27B685B6819461046E8
:1044A00000F044F84CF25030FFF7A0FE0346FB73D7
:1044B0001D4B1B691C4A23F00403136128E07B6831
:1044C0009B68BB601CE07B681B69DBB21946B8685F
:1044D00000F050F84CF25030FFF788FE0346FB73B3
:1044E000114B1B69104A23F0FA031361FB7B002B6D
:1044F00003D03B68BA681A600AE0BB680133BB604E
:104500007B68DA687B689B681344BA689A42DAD39E
:1045100000F078F8034B00221A76FB7B1846103720
:10452000BD4680BD8C370020003C024080B483B083
:1045300000AF03463960FB710D4B1B690C4A23F435
:10454000407313610A4B1B69094A43F0040313616A
:10455000074B1A69FB791B021343054A43F4803366
:10456000136100BF0C37BD465DF8047B704700BF88
:10457000003C024080B485B000AF78600B46FB7011
:104580000023FB60FB78002B02D10023FB6010E0CE
:10459000FB78012B03D14FF48073FB6009E0FB78BB
:1045A000022B03D14FF40073FB6002E04FF4407321
:1045B000FB60134B1B69124A23F440731361104BC9
:1045C0001A690F49FB6813430B610D4B1B690C4AB9
:1045D00023F0F80313610A4B1A697B68DB0013436D
:1045E000074A43F002031361054B1B69044A43F475
:1045F0008033136100BF1437BD465DF8047B7047FC
:10460000003C024080B400AF204B1B6803F40073F1
:10461000002B17D01D4B1B681C4A23F4007313603A
:104620001A4B1B68194A43F400631360174B1B684D
:10463000164A23F400631360144B1B68134A43F4B7
:1046400000731360114B1B6803F48063002B17D0B9
:104650000E4B1B680D4A23F4806313600B4B1B68E1
:104660000A4A43F480531360084B1B68074A23F43B
:1046700080531360054B1B68044A43F48063136046
:1046800000BFBD465DF8047B704700BF003C0240A0
:1046900080B489B000AF7860396000237B6100236B
:1046A0003B610023BB610023FB616BE10122FB69DD
:1046B00002FA03F37B613B681B687A6913403B6134
:1046C0003A697B699A4240F05A813B685B6803F023
:1046D0000303012B05D03B685B6803F00303022B47
:1046E00030D17B689B68BB61FB695B00032202FAE7
:1046F00003F3DB43BA691340BB613B68DA68FB69CB
:104700005B0002FA03F3BA691343BB617B68BA69C1
:104710009A607B685B68BB610122FB6902FA03F364
:10472000DB43BA691340BB613B685B681B0903F05C
:104730000102FB6902FA03F3BA691343BB617B68A8
:10474000BA695A603B685B6803F00303032B17D018
:104750007B68DB68BB61FB695B00032202FA03F341
:10476000DB43BA691340BB613B689A68FB695B0035
:1047700002FA03F3BA691343BB617B68BA69DA6072
:104780003B685B6803F00303022B23D1FB69DA0863
:104790007B68083253F82230BB61FB6903F00703E2
:1047A0009B000F2202FA03F3DB43BA691340BB619B
:1047B0003B681A69FB6903F007039B0002FA03F3E5
:1047C000BA691343BB61FB69DA087B680832B969CF
:1047D00043F822107B681B68BB61FB695B00032206
:1047E00002FA03F3DB43BA691340BB613B685B68C1
:1047F00003F00302FB695B0002FA03F3BA69134397
:10480000BB617B68BA691A603B685B6803F440333C
:10481000002B00F0B4800023FB60604B5B6C5F4AB0
:1048200043F4804353645D4B5B6C03F48043FB6053
:10483000FB685B4AFB699B08023352F82330BB617B
:10484000FB6903F003039B000F2202FA03F3DB432F
:10485000BA691340BB617B68524A93422BD07B6894
:10486000514A934225D07B68504A93421FD07B68BF
:104870004F4A934219D07B684E4A934213D07B68CB
:104880004D4A93420DD07B684C4A934207D07B68D7
:104890004B4A934201D107230EE008230CE0062384
:1048A0000AE0052308E0042306E0032304E00223D2
:1048B00002E0012300E00023FA6902F00302920003
:1048C0009340BA691343BB613549FB699B080233C6
:1048D000BA6941F823203B4B9B68BB613B69DB43D2
:1048E000BA691340BB613B685B6803F48013002B1B
:1048F00003D0BA693B691343BB61324ABB69936019
:10490000304BDB68BB613B69DB43BA691340BB6179
:104910003B685B6803F40013002B03D0BA693B6962
:104920001343BB61274ABB69D360264B5B68BB61FD
:104930003B69DB43BA691340BB613B685B6803F4C6
:104940000033002B03D0BA693B691343BB611D4A96
:10495000BB6953601B4B1B68BB613B69DB43BA6996
:104960001340BB613B685B6803F48033002B03D0CA
:10497000BA693B691343BB61124ABB691360FB69A7
:104980000133FB61FB690F2B7FF690AE00BF00BFC8
:104990002437BD465DF8047B704700BF00380240F5
:1049A00000380140000002400004024000080240BC
:1049B000000C0240001002400014024000180240A7
:1049C000001C0240003C014080B483B000AF78601E
:1049D0000B467B8013467B707B78002B03D07A8854
:1049E0007B689A6103E07B881A047B689A6100BF48
:1049F0000C37BD465DF8047B7047000080B584B07D
:104A000000AF78607B68002B01D101232BE17B682C
:104A100093F83D30DBB2002B06D17B68002283F88F
:104A20003C207868FEF740FE7B68242283F83D2016
:104A30007B681B681A687B681B6822F001021A6099
:104A40007B681B681A687B681B6842F400421A6026
:104A50007B681B681A687B681B6822F400421A6036
:104A600000F080FDF8607B685B68814A934207D85C
:104A7000FB68804A934294BF01230023DBB206E027
:104A8000FB687D4A934294BF01230023DBB2002BD5
:104A900001D00123E7E0FB68784AA2FB03239B0CCB
:104AA000BB607B681B685B6823F03F017B681B6809
:104AB000BA680A435A607B681B681B6A23F03F018F
:104AC0007B685B686A4A934202D8BB68013309E09D
:104AD000BB684FF4967202FB03F3694AA2FB0323FF
:104AE0009B0901337A6812680B4313627B681B6869
:104AF000DB6923F44F4222F0FF027B685B685C496C
:104B00008B4219D8FB68591E7B685B685B00B1FB60
:104B1000F3F3591C40F6FC730B40002B0AD0FB68E2
:104B2000591E7B685B685B00B1FBF3F30133C3F391
:104B30000B0351E004234FE07B689B68002B11D1ED
:104B4000FB68581E7B6859680B465B000B44B0FB42
:104B5000F3F30133C3F30B03002B0CBF012300233A
:104B6000DBB212E0FB68581E7B6859680B469B005D
:104B70000B4499000B44B0FBF3F30133C3F30B0375
:104B8000002B0CBF01230023DBB2002B01D001233B
:104B900022E07B689B68002B0ED1FB68581E7B6867
:104BA00059680B465B000B44B0FBF3F30133C3F3CE
:104BB0000B0343F400430FE0FB68581E7B68596801
:104BC0000B469B000B4499000B44B0FBF3F30133FD
:104BD000C3F30B0343F44043796809681343CB6183
:104BE0007B681B681B6823F0C0017B68DA697B68FF
:104BF0001B6A1A437B681B680A431A607B681B6840
:104C00009B6823F4034323F0FF037A6811697A68F1
:104C1000D26811437A6812680B4393607B681B6803
:104C2000DB6823F0FF017B685A697B689B691A4344
:104C30007B681B680A43DA607B681B681A687B68BC
:104C40001B6842F001021A607B6800221A647B68CC
:104C5000202283F83D207B6800221A637B680022B3
:104C600083F83E20002318461037BD4680BD00BFA4
:104C7000A08601007F841E00FF083D0083DE1B43E9
:104C8000D34D621080B586B000AF78607B68002B92
:104C900001D1012367E27B681B6803F00103002B4D
:104CA00075D0884B9B6803F00C03042B0CD0854B0C
:104CB0009B6803F00C03082B12D1824B5B6803F452
:104CC0008003B3F5800F0BD17E4B1B6803F40033D8
:104CD000002B5BD07B685B68002B57D1012342E23D
:104CE0007B685B68B3F5803F06D1764B1B68754ADD
:104CF00043F4803313601DE07B685B68B3F5A02F3D
:104D00000CD1704B1B686F4A43F4802313606D4BCA
:104D10001B686C4A43F4803313600BE0694B1B68DB
:104D2000684A23F480331360664B1B68654A23F49A
:104D3000802313607B685B68002B13D0FEF7FCFFB9
:104D4000386108E0FEF7F8FF02463B69D31A642B8E
:104D500001D9032307E25B4B1B6803F40033002BEC
:104D6000F0D014E0FEF7E8FF386108E0FEF7E4FF5A
:104D700002463B69D31A642B01D90323F3E1514B5B
:104D80001B6803F40033002BF0D100E000BF7B6808
:104D90001B6803F00203002B63D04A4B9B6803F0AF
:104DA0000C03002B0BD0474B9B6803F00C03082B24
:104DB0001CD1444B5B6803F48003002B16D1414B9C
:104DC0001B6803F00203002B05D07B68DB68012B16
:104DD00001D00123C7E13B4B1B6823F0F8027B683D
:104DE0001B69DB00374913430B603AE07B68DB68E3
:104DF000002B20D0344B01221A60FEF79DFF386152
:104E000008E0FEF799FF02463B69D31A022B01D94D
:104E10000323A8E12B4B1B6803F00203002BF0D007
:104E2000284B1B6823F0F8027B681B69DB002549CF
:104E300013430B6015E0244B00221A60FEF77CFF41
:104E4000386108E0FEF778FF02463B69D31A022B6F
:104E500001D9032387E11B4B1B6803F00203002BDE
:104E6000F0D17B681B6803F00803002B36D07B6809
:104E70005B69002B16D0154B01221A60FEF75CFF10
:104E8000386108E0FEF758FF02463B69D31A022B4F
:104E900001D9032367E10B4B5B6F03F00203002B87
:104EA000F0D01BE0094B00221A60FEF745FF386185
:104EB0000EE0FEF741FF02463B69D31A022B07D9E9
:104EC000032350E10038024000004742800E474271
:104ED000884B5B6F03F00203002BEAD17B681B68F1
:104EE00003F00403002B00F097800023FB75814B37
:104EF0001B6C03F08053002B0FD10023BB607D4B54
:104F00001B6C7C4A43F0805313647A4B1B6C03F098
:104F10008053BB60BB680123FB75774B1B6803F4B0
:104F20008073002B18D1744B1B68734A43F4807351
:104F30001360FEF701FF386108E0FEF7FDFE024650
:104F40003B69D31A022B01D903230CE16A4B1B687E
:104F500003F48073002BF0D07B689B68012B06D193
:104F6000644B1B6F634A43F0010313671CE07B68CB
:104F70009B68052B0CD15F4B1B6F5E4A43F004030B
:104F800013675C4B1B6F5B4A43F0010313670BE035
:104F9000584B1B6F574A23F001031367554B1B6F88
:104FA000544A23F0040313677B689B68002B15D0D9
:104FB000FEF7C2FE38610AE0FEF7BEFE02463B691C
:104FC000D31A41F28832934201D90323CBE0494BF3
:104FD0001B6F03F00203002BEED014E0FEF7ACFED3
:104FE00038610AE0FEF7A8FE02463B69D31A41F297
:104FF0008832934201D90323B5E03E4B1B6F03F087
:105000000203002BEED1FB7D012B05D1394B1B6C2C
:10501000384A23F0805313647B689B69002B00F0AF
:10502000A180344B9B6803F00C03082B5CD07B6899
:105030009B69022B41D1314B00221A60FEF77CFEA6
:10504000386108E0FEF778FE02463B69D31A022B6E
:1050500001D9032387E0274B1B6803F00073002B63
:10506000F0D17B68DA697B681B6A1A437B685B6AEC
:105070009B011A437B689B6A5B08013B1B041A4334
:105080007B68DB6A1B061B4913434B601B4B0122E9
:105090001A60FEF751FE386108E0FEF74DFE024649
:1050A0003B69D31A022B01D903235CE0114B1B6827
:1050B00003F00073002BF0D054E0104B00221A6074
:1050C000FEF73AFE386108E0FEF736FE02463B691D
:1050D000D31A022B01D9032345E0064B1B6803F0CA
:1050E0000073002BF0D13DE07B689B69012B07D159
:1050F000012338E000380240007000406000474261
:105100001B4B5B68FB607B689B69012B28D0FB68AD
:1051100003F480027B68DB699A4221D1FB6803F0CB
:105120003F027B681B6A9A421AD1FA6847F6C0733D
:1051300013407A68526A9201934211D1FB6803F4DA
:1051400040327B689B6A5B08013B1B049A4207D193
:10515000FB6803F070627B68DB6A1B069A4201D031
:10516000012300E0002318461837BD4680BD00BF6C
:105170000038024080B584B000AF786039607B6849
:10518000002B01D10123CCE0684B1B6803F007031F
:105190003A689A420CD9654B3A68D2B21A70634B9E
:1051A0001B6803F007033A689A4201D00123B8E074
:1051B0007B681B6803F00203002B20D07B681B6810
:1051C00003F00403002B05D0594B9B68584A43F465
:1051D000E05393607B681B6803F00803002B05D045
:1051E000534B9B68524A43F460439360504B9B6817
:1051F00023F0F0027B689B684D4913438B607B680A
:105200001B6803F00103002B44D07B685B68012B13
:1052100007D1474B1B6803F40033002B19D101233E
:105220007FE07B685B68022B03D07B685B68032BA5
:1052300007D13F4B1B6803F00073002B09D10123FA
:105240006FE03B4B1B6803F00203002B01D10123ED
:1052500067E0374B9B6823F003027B685B68344947
:1052600013438B60FEF768FDF8600AE0FEF764FD0B
:105270000246FB68D31A41F28832934201D90323D4
:105280004FE02B4B9B6803F00C027B685B689B0034
:105290009A42EBD1254B1B6803F007033A689A4208
:1052A0000CD2224B3A68D2B21A70204B1B6803F022
:1052B00007033A689A4201D0012332E07B681B68F9
:1052C00003F00403002B08D0194B9B6823F4E05231
:1052D0007B68DB68164913438B607B681B6803F0AF
:1052E0000803002B09D0124B9B6823F460427B68B3
:1052F0001B69DB000E4913438B6000F021F8024666
:105300000B4B9B681B0903F00F030A49CB5C22FA85
:1053100003F3094A1360094B1B681846FEF7C8FCE3
:10532000002318461037BD4680BD00BF003C024038
:1053300000380240ACAE0408240000202800002001
:105340002DE9B04F94B000AF00237B640023FB64D1
:1053500000233B640023BB64794B9B6803F00C0380
:10536000082B0DD0082B00F2E180002B02D0042B7B
:1053700003D0DBE0734BBB64DBE0734BBB64D8E072
:105380006F4B5B6803F03F037B646D4B5B6803F41A
:105390008003002B63D06A4B5B689B090022BB63D0
:1053A000FA63BB6BC3F308033B6300237B63D7E95A
:1053B0000C4522462B464FF000004FF000015901EA
:1053C00041EAD261500102460B462146511A396129
:1053D000294663EB01037B614FF000024FF00003AD
:1053E000D7E904AB59468B01514643EA91635146D4
:1053F0008A015146B2EB0108594663EB01094FF0AF
:1054000000024FF000034FEAC90343EA58734FEA22
:10541000C80290469946234618EB0303BB602B460F
:1054200049EB0303FB604FF000024FF00003D7E9A4
:10543000024529464B02214643EAD15321464A02FE
:10544000104619467B6C0022BB62FA62D7E90A2338
:10545000FBF7DAFB02460B461346FB6458E0384B79
:105460005B689B09002218461146C0F308033B62A3
:1054700000237B62D7E9088942464B464FF0000083
:105480004FF00001590141EAD261500102460B463A
:105490004146B2EB010A494663EB010B4FF00002B3
:1054A0004FF000034FEA8B1343EA9A634FEA8A12E4
:1054B000B2EB0A0463EB0B054FF000024FF0000360
:1054C000EB0043EA5473E20014461D464346E318DA
:1054D0003B604B4645EB03037B604FF000024FF00F
:1054E0000003D7E9004529468B02214643EA915340
:1054F00021468A02104619467B6C0022BB61FA6184
:10550000D7E90623FBF780FB02460B461346FB64F4
:105510000B4B5B681B0C03F0030301335B003B6424
:10552000FA6C3B6CB2FBF3F3BB6402E0054BBB646B
:1055300000BFBB6C18465037BD46BDE8B08F00BFFA
:10554000003802400024F40000127A0080B400AF5A
:10555000034B1B681846BD465DF8047B704700BFCF
:105560002400002080B500AFFFF7F0FF0246054B96
:105570009B689B0A03F007030349CB5C22FA03F301
:10558000184680BD00380240BCAE040880B500AFAC
:10559000FFF7DCFF0246054B9B685B0B03F007033C
:1055A0000349CB5C22FA03F3184680BD0038024061
:1055B000BCAE040880B582B000AF78607B68002B79
:1055C00001D101237BE07B685B6A002B08D17B68FB
:1055D0005B68B3F5827F09D07B680022DA6105E061
:1055E0007B6800221A617B6800225A617B68002276
:1055F0009A627B6893F85130DBB2002B06D17B684E
:10560000002283F850207868FEF796F87B68022223
:1056100083F851207B681B681A687B681B6822F03E
:1056200040021A607B685B6803F482727B689B6847
:1056300003F404431A437B68DB6803F400631A43F2
:105640007B681B6903F002031A437B685B6903F004
:1056500001031A437B689B6903F400731A437B6858
:10566000DB6903F038031A437B681B6A03F080038D
:1056700042EA03017B689B6A03F400527B681B6863
:105680000A431A607B689B691B0C03F004017B686A
:105690005B6A03F010027B681B680A435A607B68F0
:1056A0001B68DA697B681B6822F40062DA617B6838
:1056B00000225A657B68012283F851200023184696
:1056C0000837BD4680BD80B582B000AF78607B688A
:1056D000002B01D101233FE07B6893F83D30DBB222
:1056E000002B06D17B68002283F83C207868FEF707
:1056F0006BF87B68242283F83D207B681B68DA689E
:105700007B681B6822F40052DA60786800F0DEFDE6
:105710007B681B681A697B681B6822F490421A61D7
:105720007B681B685A697B681B6822F02A025A61F1
:105730007B681B68DA687B681B6842F40052DA6099
:105740007B6800221A647B68202283F83D207B68F6
:10575000202283F83E20002318460837BD4680BD2E
:1057600080B58AB002AFF860B9603B601346FB8039
:1057700000237B61FB6893F83D30DBB2202B7CD1AA
:10578000BB68002B02D0FB88002B01D1012375E000
:10579000FB6893F83C30012B01D102236EE0FB68DB
:1057A000012283F83C20FB6800221A64FB68212256
:1057B00083F83D20FEF7C0FA7861FB68FA889A8486
:1057C000FB68FA88DA84FB689B68B3F5805F08D1D0
:1057D000FB681B69002B04D10023FB61BB68BB6124
:1057E00003E0BB68FB610023BB61FB68002283F818
:1057F0003C202AE03B6800937B6900228021F86806
:1058000000F01EFB0346002B01D0032336E0FB69AA
:10581000002B0BD1BB691B881A46FB681B68C2F3BF
:1058200008025A60BB690233BB6107E0FB691A7862
:10583000FB681B685A60FB690133FB61FB68DB8C0A
:105840009BB2013B9AB2FB68DA84FB68DB8C9BB2AB
:10585000002BCFD13B6800937B6900224021F86880
:1058600000F0EEFA0346002B01D0032306E0FB68AC
:10587000202283F83D20002300E002231846203731
:10588000BD4680BD80B584B000AFF860B9601346F6
:10589000FB80FB6893F83E30DBB2202B1DD1BB6848
:1058A000002B02D0FB88002B01D1012316E0FB68FE
:1058B00093F83C30012B01D102230FE0FB68012259
:1058C00083F83C20FB6800221A63FB881A46B968FB
:1058D000F86800F023FB034600E002231846103767
:1058E000BD4680BD80B5BAB000AF78607B681B68EC
:1058F0001B68C7F8E4307B681B68DB68C7F8E030DA
:105900007B681B685B69C7F8DC300023C7F8D830B8
:105910000023C7F8D430D7F8E43003F00F03C7F8FA
:10592000D830D7F8D830002B0FD1D7F8E43003F0B7
:105930002003002B09D0D7F8E03003F02003002B20
:1059400003D0786800F007FC56E2D7F8D830002B77
:1059500000F0DE80D7F8DC3003F00103002B06D125
:10596000D7F8E03003F49073002B00F0D180D7F823
:10597000E43003F00103002B0BD0D7F8E03003F440
:105980008073002B05D07B681B6C43F001027B68A1
:105990001A64D7F8E43003F00403002B0BD0D7F8D7
:1059A000DC3003F00103002B05D07B681B6C43F057
:1059B00002027B681A64D7F8E43003F00203002B7C
:1059C0000BD0D7F8DC3003F00103002B05D07B6847
:1059D0001B6C43F004027B681A64D7F8E43003F0D0
:1059E0000803002B11D0D7F8E03003F02003002B80
:1059F00005D1D7F8DC3003F00103002B05D07B681C
:105A00001B6C43F008027B681A647B681B6C002BDC
:105A100000F0ED81D7F8E43003F02003002B08D02C
:105A2000D7F8E03003F02003002B02D0786800F0B4
:105A300092FB7B681B685B6903F04003402B0CBF43
:105A400001230023DBB2C7F8D4307B681B6C03F062
:105A50000803002B03D1D7F8D430002B4FD078683F
:105A600000F09AFA7B681B685B6903F04003402BE7
:105A700041D17B681B681433C7F89C30D7F89C3041
:105A800053E8003FC7F89830D7F8983023F0400328
:105A9000C7F8D0307B681B681433D7F8D020C7F81C
:105AA000A820C7F8A430D7F8A410D7F8A82041E858
:105AB0000023C7F8A030D7F8A030002BD9D17B68DD
:105AC0009B6B002B13D07B689B6B7D4A1A657B68B0
:105AD0009B6B1846FEF7E1FA0346002B16D07B6855
