:020000040800F2
:1000000000000220750C0008FD0B0008030C00081E
:10001000090C00080F0C0008150C00080000000077
:100020000000000000000000000000001B0C0008A1
:10003000290C000800000000370C0008450C0008DF
:10004000C50C0008C50C0008C50C0008C50C00084C
:10005000C50C0008C50C0008C50C0008C50C00083C
:10006000C50C0008C50C0008C50C0008C50C00082C
:10007000C50C0008C50C0008C50C0008C50C00081C
:10008000C50C0008C50C0008C50C0008C50C00080C
:10009000C50C0008C50C0008C50C0008C50C0008FC
:1000A000C50C0008C50C0008C50C0008C50C0008EC
:1000B000C50C0008C50C0008C50C0008C50C0008DC
:1000C000C50C0008C50C0008C50C0008C50C0008CC
:1000D000C50C0008C50C0008C50C0008C50C0008BC
:1000E000C50C0008C50C0008C50C0008C50C0008AC
:1000F000C50C0008C50C0008C50C0008C50C00089C
:10010000C50C0008C50C0008C50C0008C50C00088B
:10011000C50C0008C50C0008C50C0008C50C00087B
:10012000C50C0008C50C0008C50C0008C50C00086B
:10013000C50C0008C50C0008C50C0008C50C00085B
:10014000C50C0008C50C0008C50C0008C50C00084B
:10015000C50C0008C50C0008C50C0008C50C00083B
:10016000C50C0008C50C0008C50C0008C50C00082B
:10017000C50C0008C50C0008C50C000800000000F4
:08018000C50C0008C50C0008C5
:1001880010B5054C237833B9044B13B10448AFF3C9
:1001980000800123237010BD0C0000200000000027
:1001A800B823000808B5034B1BB103490348AFF354
:1001B800008008BD0000000010000020B8230008DF
:1001C80053B94AB9002908BF00281CBF4FF0FF31B6
:1001D8004FF0FF3000F070B9ADF1080C6DE904CEB6
:1001E80000F006F8DDF804E0DDE9022304B070470A
:1001F8002DE9F047089E0D4604460F46002B4AD1CC
:100208008A42944665D9B2FA82F343B102FA03FCF2
:10021800C3F120029F4020FA02F217439C404FEAA4
:100228001C4E1FFA8CF5B7FBFEF1220C0EFB117762
:1002380042EA074201FB05F090420AD91CEB020290
:1002480001F1FF3780F01C81904240F21981023998
:100258006244121AA4B2B2FBFEF00EFB102244EA6A
:10026800024400FB05F5A5420AD91CEB040400F181
:10027800FF3280F00781A54240F2048164440238CD
:1002880040EA0140641B00211EB1DC400023C6E99E
:100298000043BDE8F0878B4208D9002E00F0ED80BE
:1002A8000021C6E900050846BDE8F087B3FA83F1E6
:1002B800002949D1AB4202D3824200F2F880841A65
:1002C80065EB030201201746002EE2D0C6E900477D
:1002D800DFE702B9FFDEB2FA82F3002B40F090802C
:1002E8008A1A4FEA1C471FFA8CFE0121B2FBF7F568
:1002F80007FB1520220C42EA00420EFB05F0904253
:1003080008D91CEB020205F1FF3802D2904200F234
:10031800CB804546121AA4B2B2FBF7F007FB1022B5
:1003280044EA02440EFB00FEA64508D91CEB04046F
:1003380000F1FF3202D2A64500F2BB801046A4EBC2
:100348000E0440EA05409FE7C1F120078B4022FADE
:1003580007FC4CEA030C05FA01F420FA07F3FD4008
:100368004FEA1C492343B5FBF9F81FFA8CFE09FB39
:1003780018551C0C44EA054408FB0EF5A54202FA80
:1003880001F200FA01F00BD91CEB040408F1FF3A62
:1003980080F08880A54240F28580A8F10208644474
:1003A800641B9DB2B4FBF9F309FB134445EA04440A
:1003B80003FB0EFEA64508D91CEB040403F1FF3528
:1003C8006CD2A6456AD9023B644443EA0843A3FBBE
:1003D8000295A4EB0E04AC42C846AE4656D353D0A1
:1003E80056B1B0EB080264EB0E0404FA07F7CA40F2
:1003F800CC401743C6E9007418460021BDE8F087D1
:10040800C3F1200102FA03FC20FA01F225FA01F1F6
:100418009D402A434FEA1C471FFA8CFEB1FBF7F0B8
:1004280007FB1015110C41EA054100FB0EF58D4242
:1004380004FA03F408D91CEB010100F1FF382FD2AC
:100448008D422DD902386144491B92B2B1FBF7F5B0
:1004580007FB151142EA014205FB0EF1914208D94A
:100468001CEB020205F1FF3816D2914214D9023D65
:100478006244521A45EA004138E73146304608E7F7
:100488003946E6E61046FBE64845A9D2B9EB02082C
:1004980065EB0C0E013BA3E74546EAE72B4694E7DC
:1004A8004046D1E7D0467BE7023D624432E7084642
:1004B8000AE76444023842E7704700BF80B586B057
:1004C80000AF78607B681B687B617B6804331B68BE
:1004D8003B6100F017FC0B4B00221A60094B00220D
:1004E8005A60084B00229A6001F068FE7B69FB6045
:1004F800FB6883F3088800BF3B69984700BF18373B
:10050800BD4680BD10E000E080B485B000AF7860E3
:100518007B682A4A934202D20023FB6047E07B684B
:10052800274A934202D20123FB6040E07B68254AB8
:10053800934202D20223FB6039E07B68224A93424D
:1005480002D80323FB6032E07B68204A934202D83A
:100558000423FB602BE07B681D4A934202D80523E5
:10056800FB6024E07B681B4A934202D80623FB60A9
:100578001DE07B68184A934202D80723FB6016E007
:100588007B68164A934202D80823FB600FE07B6819
:10059800134A934202D80923FB6008E07B68114A9A
:1005A800934202D80A23FB6001E00B23FB60FB683F
:1005B80018461437BD465DF8047B704700400008B4
:1005C8000080000800C00008FFFF0008FFFF0108C6
:1005D800FFFF0308FFFF0508FFFF0708FFFF0908E3
:1005E800FFFF0B08FFFF0D0880B58AB000AF7860E9
:1005F800396000F045FD034687F8273097F8273023
:10060800002B02D097F827302DE000233B6102230E
:100618003B627868FFF778FF0346BB613868FFF7ED
:1006280073FF0246BB69D31A0133FB6107F10C0261
:1006380007F110031146184600F084FE034687F8B8
:10064800273097F82730002B02D097F827300AE098
:1006580000F038FD97F82730002B02D097F82730A4
:1006680001E097F8273018462837BD4680BDB0B559
:1006780088B000AFF860B9607A6000F001FD034609
:10068800FB76FB7E002B01D0FB7E33E00023FB6171
:1006980027E0FA68FB6913441B687B61BA68FB6949
:1006A800D1187B6900221C46154622462B4602209B
:1006B80000F092FC0346FB76FB7E002B03D000F093
:1006C80001FDFB7E16E0BA68FB6913441B687A6972
:1006D8009A4203D000F0F6FC01230BE0FB690433D7
:1006E800FB61FA697B689A42D3D300F0EBFC0346BE
:1006F800FB76FB7E18462037BD46B0BD80B584B07A
:1007080000AF7860396000F075FBF860FA687B68C4
:10071800D31A3A689A4234BF01230023DBB2184641
:100728001037BD4680BD000080B582B000AF78604C
:1007380010491148FFF758FF0346002B01D000234A
:1007480014E04FF480220C490C48FFF790FF034651
:10075800002B01D0002309E009490A48FFF744FFAC
:100768000346002B01D0002300E001231846083778
:10077800BD4680BD00000A080000040800000C08FF
:10078800000003080000020880B584B000AF154BD4
:10079800FB60FB681B68144A93420CD14FF001635D
:1007A800BB60BB6803F1774303F574039B107B6060
:1007B8007868FFF7B9FF00F01DFB386000BF41F211
:1007C80088313868FFF79AFF034683F00103DBB2EC
:1007D800002BF4D10548FFF771FE00BF1037BD4666
:1007E80080BD00BF00000208EFBEADDE00000408B7
:1007F80080B500AF00F064FA00F006F800F06EF87B
:10080800FFF7C2FFFEE7000080B594B000AF07F124
:10081800200330220021184601F09EFD07F10C0349
:1008280000221A605A609A60DA601A610023BB607D
:10083800284B1B6C274A43F080531364254B1B6CD1
:1008480003F08053BB60BB6800237B60224B1B68AE
:10085800214A43F4804313601F4B1B6803F4804311
:100868007B607B6802233B620123FB6210233B63AE
:100878000223BB630023FB6308233B6432237B64AE
:100888000423BB640723FB6407F12003184601F027
:1008980031F80346002B01D000F07EF90F23FB60EE
:1008A80002233B6100237B614FF4A053BB614FF4EB
:1008B8008053FB6107F10C030021184601F092FAFE
:1008C8000346002B01D000F067F900BF5037BD4642
:1008D80080BD00BF003802400070004080B58CB079
:1008E80000AF07F11C0300221A605A609A60DA60B0
:1008F8001A610023BB61A24B1B6BA14A43F0100392
:1009080013639F4B1B6B03F01003BB61BB69002390
:100918007B619B4B1B6B9A4A43F004031363984B10
:100928001B6B03F004037B617B6900233B61944BE1
:100938001B6B934A43F080031363914B1B6B03F0CB
:1009480080033B613B690023FB608D4B1B6B8C4A2A
:1009580043F0010313638A4B1B6B03F00103FB6035
:10096800FB680023BB60864B1B6B854A43F0020380
:100978001363834B1B6B03F00203BB60BB6800234C
:100988007B607F4B1B6B7E4A43F0080313637C4BF1
:100998001B6B03F008037B607B6800220821794801
:1009A80000F08EFF01220121774800F089FF002224
:1009B8004FF21001754800F083FF0823FB61012303
:1009C8003B6200237B620023BB6207F11C031946CC
:1009D8006C4800F0D9FD0123FB6101233B62002331
:1009E8007B620023BB6207F11C031946664800F0CE
:1009F800CBFD0823FB6102233B6200237B620023BB
:100A0800BB620523FB6207F11C0319465E4800F030
:100A1800BBFD0123FB614FF488133B6200237B621B
:100A280007F11C0319465A4800F0AEFD1023FB617C
:100A380002233B6200237B620023BB620623FB6226
:100A480007F11C031946524800F09EFDE023FB61A4
:100A580002233B6200237B620023BB620523FB6207
:100A680007F11C0319464A4800F08EFD0423FB6178
:100A780000233B6200237B6207F11C0319464548AB
:100A880000F082FD4FF48063FB6102233B62002388
:100A98007B620023BB620523FB6207F11C03194636
:100AA8003C4800F071FD4FF21003FB6101233B62EB
:100AB80000237B620023BB6207F11C0319463348FD
:100AC80000F062FD4FF4A453FB6102233B62002354
:100AD8007B620023BB620623FB6207F11C031946F5
:100AE800294800F051FD4FF40073FB6100233B627D
:100AF80000237B6207F11C031946254800F044FDDA
:100B08004FF4E053FB6102233B6200237B62002326
:100B1800BB620A23FB6207F11C0319461C4800F05C
:100B280033FD2023FB6100233B6200237B6207F136
:100B38001C031946154800F027FD4FF41073FB619C
:100B480012233B6200237B620023BB620423FB6207
:100B580007F11C0319460F4800F016FD0223FB613C
:100B68004FF490133B6200237B6207F11C03194684
:100B7800044800F009FD00BF3037BD4680BD00BF06
:100B8800003802400010024000080240000C0240F9
:100B9800000002400004024080B400AF72B600BFFB
:100BA800FEE7000080B582B000AF00237B60104BE9
:100BB8005B6C0F4A43F4804353640D4B5B6C03F446
:100BC80080437B607B6800233B60094B1B6C084AB1
:100BD80043F080531364064B1B6C03F080533B6057
:100BE8003B68072000F0C4F900BF0837BD4680BD48
:100BF8000038024080B400AFFEE780B400AFFEE7E3
:100C080080B400AFFEE780B400AFFEE780B400AF69
:100C1800FEE780B400AF00BFBD465DF8047B7047B7
:100C280080B400AF00BFBD465DF8047B704780B458
:100C380000AF00BFBD465DF8047B704780B500AFCC
:100C480000F0C4F800BF80BD80B400AF064BD3F8F5
:100C58008830054A43F47003C2F8883000BFBD46A7
:100C68005DF8047B704700BF00ED00E0DFF834D08A
:100C78000D480E490E4A002302E0D458C4500433EC
:100C8800C4188C42F9D30B4A0B4C002301E01360C3
:100C98000432A242FBD3FFF7D7FF01F065FBFFF751
:100CA800A7FD704700000220000000200C00002073
:100CB800F02300080C0000204C000020FEE7000094
:100CC80080B500AF0E4B1B680D4A43F400731360E8
:100CD8000B4B1B680A4A43F480631360084B1B687C
:100CE800074A43F480731360032000F041F90020A1
:100CF80000F03CF8FFF756FF0023184680BD00BF00
:100D0800003C024080B500AF134B4FF0FF321A622F
:100D1800114B00221A62104B4FF0FF325A620E4BF1
:100D280000225A620C4B4FF0FF321A610A4B002224
:100D38001A61094B4FF0FF325A61074B00225A6182
:100D4800054B4FF0FF329A61034B00229A6100F085
:100D580005F80023184680BD0038024080B400AF73
:100D680000BFBD465DF8047B7047000080B582B0C7
:100D780000AF7860124B1A68124B1B7819464FF473
:100D88007A73B3FBF1F3B2FBF3F3184600F017F9EB
:100D98000346002B01D001230EE07B680F2B0AD8F5
:100DA800002279684FF0FF3000F0EDF8064A7B68C2
:100DB8001360002300E0012318460837BD4680BDB4
:100DC80000000020080000200400002080B400AFCC
:100DD800064B1B781A46064B1B681344044A1360DB
:100DE80000BFBD465DF8047B704700BF08000020C7
:100DF8002800002080B400AF034B1B681846BD468E
:100E08005DF8047B704700BF2800002080B485B0DF
:100E180000AF78607B6803F00703FB600C4BDB686E
:100E2800BB60BA684FF6FF031340BB60FB681A0249
:100E3800BB68134343F0BF6343F40033BB60044A09
:100E4800BB68D36000BF1437BD465DF8047B7047AC
:100E580000ED00E080B400AF044BDB681B0A03F030
:100E680007031846BD465DF8047B704700ED00E0B7
:100E780080B483B000AF03463960FB7197F907303F
:100E8800002B0ADB3B68DAB20C4997F907301201EC
:100E9800D2B20B4483F800230AE03B68DAB208496F
:100EA800FB7903F00F03043B1201D2B20B441A760C
:100EB80000BF0C37BD465DF8047B704700E100E0D9
:100EC80000ED00E080B489B000AFF860B9607A60E6
:100ED800FB6803F00703FB61FB69C3F10703042BFD
:100EE80028BF0423BB61FB690433062B02D9FB69C5
:100EF800033B00E000237B614FF0FF32BB6902FA3D
:100F080003F3DA43BB681A407B699A404FF0FF311C
:100F18007B6901FA03F3D9437B680B4013431846F6
:100F28002437BD465DF8047B7047000080B582B069
:100F380000AF78607B68013BB3F1807F01D3012368
:100F48000FE00A4A7B68013B53600F214FF0FF30E6
:100F5800FFF78EFF054B00229A60044B07221A60A8
:100F6800002318460837BD4680BD00BF10E000E0EA
:100F780080B582B000AF78607868FFF747FF00BFA0
:100F88000837BD4680BD80B586B000AF0346B9605E
:100F98007A60FB7300237B61FFF75CFF78617A68F6
:100FA800B9687869FFF78EFF024697F90F30114646
:100FB8001846FFF75DFF00BF1837BD4680BD80B5F6
:100FC80082B000AF78607868FFF7B0FF0346184634
:100FD8000837BD4680BD000080B586B000AFF86018
:100FE800B960C7E900230123FB75234B1B7E012B46
:100FF80001D102233BE0204B01221A764CF25030FB
:1010080000F070F80346FB75FB7D002B2BD1FB68C5
:10101800002B05D13B781946B86800F01BF916E09B
:10102800FB68012B05D13B881946B86800F0EEF83B
:101038000DE0FB68022B05D13B681946B86800F043
:10104800C3F804E0D7E90023B86800F08BF84CF245
:10105800503000F047F80346FB75084B1B69074AF8
:1010680023F001031361044B00221A76FB7D184616
:101078001837BD4680BD00BF2C000020003C024050
:1010880080B483B000AF0023FB710B4B1B69002BAE
:101098000BDA094B094A5A60074B094A5A60064B52
:1010A8001B69002B01DA0123FB71FB7918460C3709
:1010B800BD465DF8047B7047003C0240230167454C
:1010C800AB89EFCD80B400AF054B1B69044A43F0F0
:1010D8000043136100231846BD465DF8047B704742
:1010E800003C024080B584B000AF78600023FB600C
:1010F8001A4B0022DA61FFF77DFEF86010E07B688A
:10110800B3F1FF3F0CD07B68002B07D0FFF772FECE
:101118000246FB68D31A7A689A4201D2032319E07F
:101128000F4BDB6803F48033002BE8D10C4BDB68F2
:1011380003F00103002B02D0094B0122DA60084BAF
:10114800DB6803F0F203002B03D000F0A5F80123BD
:1011580000E0002318461037BD4680BD2C00002053
:10116800003C024080B485B000AFF860C7E90023B6
:10117800144B1B69134A23F440731361114B1B6909
:10118800104A43F4407313610E4B1B690D4A43F038
:1011980001031361FB683A681A60BFF36F8F00BFE1
:1011A800D7E900014FF000024FF000030A000023C6
:1011B800F968043113460B6000BF1437BD465DF86B
:1011C800047B7047003C024080B483B000AF786075
:1011D80039600D4B1B690C4A23F4407313610A4BA9
:1011E8001B69094A43F400731361074B1B69064ADC
:1011F80043F0010313617B683A681A6000BF0C373B
:10120800BD465DF8047B7047003C024080B483B063
:1012180000AF78600B467B800D4B1B690C4A23F4AA
:10122800407313610A4B1B69094A43F480731361C5
:10123800074B1B69064A43F0010313617B687A88F0
:101248001A8000BF0C37BD465DF8047B704700BFAD
:10125800003C024080B483B000AF78600B46FB705E
:101268000C4B1B690B4A23F440731361094B094A61
:101278001B691361074B1B69064A43F0010313619D
:101288007B68FA781A7000BF0C37BD465DF8047B9E
:10129800704700BF003C024080B400AF274BDB68BA
:1012A80003F01003002B08D0254BDB6943F0100333
:1012B800234AD361214B1022DA60204BDB6803F00C
:1012C8002003002B08D01E4BDB6943F008031C4A9F
:1012D800D3611A4B2022DA60184BDB6803F0400315
:1012E800002B08D0164BDB6943F00403144AD36182
:1012F800124B4022DA60114BDB6803F08003002BAD
:1013080008D00F4BDB6943F002030D4AD3610B4B46
:101318008022DA60094BDB6803F00203002B08D057
:10132800074BDB6943F02003054AD361034B0222D4
:10133800DA6000BFBD465DF8047B7047003C0240A0
:101348002C00002080B584B000AF7860396001239C
:10135800FB730023BB60314B1B7E012B01D10223A1
:1013680058E02E4B01221A764CF25030FFF7BAFEA5
:101378000346FB73FB7B002B48D13B684FF0FF32E1
:101388001A607B681B68012B15D17B681B69DAB270
:101398007B685B681946104600F044F84CF2503000
:1013A800FFF7A0FE0346FB731D4B1B691C4A23F085
:1013B8000403136128E07B689B68BB601CE07B68C2
:1013C8001B69DBB21946B86800F050F84CF250308F
:1013D800FFF788FE0346FB73114B1B69104A23F085
:1013E800FA031361FB7B002B03D03B68BA681A60D1
:1013F8000AE0BB680133BB607B68DA687B689B687E
:101408001344BA689A42DAD300F078F8034B002202
:101418001A76FB7B18461037BD4680BD2C0000208D
:10142800003C024080B483B000AF03463960FB71D2
:101438000D4B1B690C4A23F4407313610A4B1B695B
:10144800094A43F004031361074B1A69FB791B022D
:101458001343054A43F48033136100BF0C37BD467C
:101468005DF8047B704700BF003C024080B485B043
:1014780000AF78600B46FB700023FB60FB78002B05
:1014880002D10023FB6010E0FB78012B03D14FF45D
:101498008073FB6009E0FB78022B03D14FF40073E3
:1014A800FB6002E04FF44073FB60134B1B69124A68
:1014B80023F440731361104B1A690F49FB681343F7
:1014C8000B610D4B1B690C4A23F0F80313610A4B9F
:1014D8001A697B68DB001343074A43F00203136170
:1014E800054B1B69044A43F48033136100BF14376A
:1014F800BD465DF8047B7047003C024080B400AFF5
:10150800204B1B6803F40073002B17D01D4B1B687E
:101518001C4A23F4007313601A4B1B68194A43F4DE
:1015280000631360174B1B68164A23F400631360AB
:10153800144B1B68134A43F400731360114B1B6868
:1015480003F48063002B17D00E4B1B680D4A23F45D
:10155800806313600B4B1B680A4A43F48053136083
:10156800084B1B68074A23F480531360054B1B681C
:10157800044A43F48063136000BFBD465DF8047BF2
:10158800704700BF003C024080B489B000AF78606B
:10159800396000237B6100233B610023BB6100238A
:1015A800FB616BE10122FB6902FA03F37B613B6893
:1015B8001B687A6913403B613A697B699A4240F03B
:1015C8005A813B685B6803F00303012B05D03B6835
:1015D8005B6803F00303022B30D17B689B68BB6117
:1015E800FB695B00032202FA03F3DB43BA69134089
:1015F800BB613B68DA68FB695B0002FA03F3BA690E
:101608001343BB617B68BA699A607B685B68BB619E
:101618000122FB6902FA03F3DB43BA691340BB6199
:101628003B685B681B0903F00102FB6902FA03F3DC
:10163800BA691343BB617B68BA695A603B685B68E7
:1016480003F00303032B17D07B68DB68BB61FB69DE
:101658005B00032202FA03F3DB43BA691340BB6160
:101668003B689A68FB695B0002FA03F3BA691343A3
:10167800BB617B68BA69DA603B685B6803F00303A7
:10168800022B23D1FB69DA087B68083253F8223031
:10169800BB61FB6903F007039B000F2202FA03F307
:1016A800DB43BA691340BB613B681A69FB6903F005
:1016B80007039B0002FA03F3BA691343BB61FB6992
:1016C800DA087B680832B96943F822107B681B681E
:1016D800BB61FB695B00032202FA03F3DB43BA69CF
:1016E8001340BB613B685B6803F00302FB695B0066
:1016F80002FA03F3BA691343BB617B68BA691A60DB
:101708003B685B6803F44033002B00F0B48000238F
:10171800FB60604B5B6C5F4A43F4804353645D4BF2
:101728005B6C03F48043FB60FB685B4AFB699B08C6
:10173800023352F82330BB61FB6903F003039B00BB
:101748000F2202FA03F3DB43BA691340BB617B68DB
:10175800524A93422BD07B68514A934225D07B68EA
:10176800504A93421FD07B684F4A934219D07B68F6
:101778004E4A934213D07B684D4A93420DD07B6802
:101788004C4A934207D07B684B4A934201D10723C6
:101798000EE008230CE006230AE0052308E00423F2
:1017A80006E0032304E0022302E0012300E0002313
:1017B800FA6902F0030292009340BA691343BB61CD
:1017C8003549FB699B080233BA6941F823203B4B32
:1017D8009B68BB613B69DB43BA691340BB613B68EB
:1017E8005B6803F48013002B03D0BA693B69134389
:1017F800BB61324ABB699360304BDB68BB613B69B4
:10180800DB43BA691340BB613B685B6803F40013B0
:10181800002B03D0BA693B691343BB61274ABB69F4
:10182800D360264B5B68BB613B69DB43BA691340F5
:10183800BB613B685B6803F40033002B03D0BA69D3
:101848003B691343BB611D4ABB6953601B4B1B6853
:10185800BB613B69DB43BA691340BB613B685B68AA
:1018680003F48033002B03D0BA693B691343BB618F
:10187800124ABB691360FB690133FB61FB690F2BDB
:101888007FF690AE00BF00BF2437BD465DF8047BED
:10189800704700BF00380240003801400000024095
:1018A8000004024000080240000C02400010024000
:1018B8000014024000180240001C0240003C014095
:1018C80080B483B000AF78600B467B8013467B7092
:1018D8007B78002B03D07A887B689A6103E07B8849
:1018E8001A047B689A6100BF0C37BD465DF8047B1B
:1018F8007047000080B586B000AF78607B68002B29
:1019080001D1012367E27B681B6803F00103002B08
:1019180075D0884B9B6803F00C03042B0CD0854BC7
:101928009B6803F00C03082B12D1824B5B6803F40D
:101938008003B3F5800F0BD17E4B1B6803F4003393
:10194800002B5BD07B685B68002B57D1012342E2F8
:101958007B685B68B3F5803F06D1764B1B68754A98
:1019680043F4803313601DE07B685B68B3F5A02FF8
:101978000CD1704B1B686F4A43F4802313606D4B86
:101988001B686C4A43F4803313600BE0694B1B6897
:10199800684A23F480331360664B1B68654A23F456
:1019A800802313607B685B68002B13D0FFF722FA53
:1019B800386108E0FFF71EFA02463B69D31A642B28
:1019C80001D9032307E25B4B1B6803F40033002BA8
:1019D800F0D014E0FFF70EFA386108E0FFF70AFAD2
:1019E80002463B69D31A642B01D90323F3E1514B17
:1019F8001B6803F40033002BF0D100E000BF7B68C4
:101A08001B6803F00203002B63D04A4B9B6803F06A
:101A18000C03002B0BD0474B9B6803F00C03082BDF
:101A28001CD1444B5B6803F48003002B16D1414B57
:101A38001B6803F00203002B05D07B68DB68012BD1
:101A480001D00123C7E13B4B1B6823F0F8027B68F8
:101A58001B69DB00374913430B603AE07B68DB689E
:101A6800002B20D0344B01221A60FFF7C3F93861EC
:101A780008E0FFF7BFF902463B69D31A022B01D9E8
:101A88000323A8E12B4B1B6803F00203002BF0D0C3
:101A9800284B1B6823F0F8027B681B69DB0025498B
:101AA80013430B6015E0244B00221A60FFF7A2F9DC
:101AB800386108E0FFF79EF902463B69D31A022B0A
:101AC80001D9032387E11B4B1B6803F00203002B9A
:101AD800F0D17B681B6803F00803002B36D07B68C5
:101AE8005B69002B16D0154B01221A60FFF782F9AB
:101AF800386108E0FFF77EF902463B69D31A022BEA
:101B080001D9032367E10B4B5B6F03F00203002B42
:101B1800F0D01BE0094B00221A60FFF76BF938611F
:101B28000EE0FFF767F902463B69D31A022B07D983
:101B3800032350E10038024000004742800E47422C
:101B4800884B5B6F03F00203002BEAD17B681B68AC
:101B580003F00403002B00F097800023FB75814BF2
:101B68001B6C03F08053002B0FD10023BB607D4B0F
:101B78001B6C7C4A43F0805313647A4B1B6C03F054
:101B88008053BB60BB680123FB75774B1B6803F46C
:101B98008073002B18D1744B1B68734A43F480730D
:101BA8001360FFF727F9386108E0FFF723F90246C9
:101BB8003B69D31A022B01D903230CE16A4B1B683A
:101BC80003F48073002BF0D07B689B68012B06D14F
:101BD800644B1B6F634A43F0010313671CE07B6887
:101BE8009B68052B0CD15F4B1B6F5E4A43F00403C7
:101BF80013675C4B1B6F5B4A43F0010313670BE0F1
:101C0800584B1B6F574A23F001031367554B1B6F43
:101C1800544A23F0040313677B689B68002B15D094
:101C2800FFF7E8F838610AE0FFF7E4F802463B6995
:101C3800D31A41F28832934201D90323CBE0494BAE
:101C48001B6F03F00203002BEED014E0FFF7D2F86D
:101C580038610AE0FFF7CEF802463B69D31A41F231
:101C68008832934201D90323B5E03E4B1B6F03F042
:101C78000203002BEED1FB7D012B05D1394B1B6CE8
:101C8800384A23F0805313647B689B69002B00F06B
:101C9800A180344B9B6803F00C03082B5CD07B6855
:101CA8009B69022B41D1314B00221A60FFF7A2F841
:101CB800386108E0FFF79EF802463B69D31A022B09
:101CC80001D9032387E0274B1B6803F00073002B1F
:101CD800F0D17B68DA697B681B6A1A437B685B6AA8
:101CE8009B011A437B689B6A5B08013B1B041A43F0
:101CF8007B68DB6A1B061B4913434B601B4B0122A5
:101D08001A60FFF777F8386108E0FFF773F80246C2
:101D18003B69D31A022B01D903235CE0114B1B68E2
:101D280003F00073002BF0D054E0104B00221A602F
:101D3800FFF760F8386108E0FFF75CF802463B6996
:101D4800D31A022B01D9032345E0064B1B6803F085
:101D58000073002BF0D13DE07B689B69012B07D114
:101D6800012338E00038024000700040600047421C
:101D78001B4B5B68FB607B689B69012B28D0FB6869
:101D880003F480027B68DB699A4221D1FB6803F087
:101D98003F027B681B6A9A421AD1FA6847F6C073F9
:101DA80013407A68526A9201934211D1FB6803F496
:101DB80040327B689B6A5B08013B1B049A4207D14F
:101DC800FB6803F070627B68DB6A1B069A4201D0ED
:101DD800012300E0002318461837BD4680BD00BF28
:101DE8000038024080B584B000AF786039607B6805
:101DF800002B01D10123CCE0684B1B6803F00703DB
:101E08003A689A420CD9654B3A68D2B21A70634B59
:101E18001B6803F007033A689A4201D00123B8E02F
:101E28007B681B6803F00203002B20D07B681B68CB
:101E380003F00403002B05D0594B9B68584A43F420
:101E4800E05393607B681B6803F00803002B05D000
:101E5800534B9B68524A43F460439360504B9B68D2
:101E680023F0F0027B689B684D4913438B607B68C5
:101E78001B6803F00103002B44D07B685B68012BCF
:101E880007D1474B1B6803F40033002B19D10123FA
:101E98007FE07B685B68022B03D07B685B68032B61
:101EA80007D13F4B1B6803F00073002B09D10123B6
:101EB8006FE03B4B1B6803F00203002B01D10123A9
:101EC80067E0374B9B6823F003027B685B68344903
:101ED80013438B60FEF78EFFF8600AE0FEF78AFF77
:101EE8000246FB68D31A41F28832934201D9032390
:101EF8004FE02B4B9B6803F00C027B685B689B00F0
:101F08009A42EBD1254B1B6803F007033A689A42C3
:101F18000CD2224B3A68D2B21A70204B1B6803F0DD
:101F280007033A689A4201D0012332E07B681B68B4
:101F380003F00403002B08D0194B9B6823F4E052EC
:101F48007B68DB68164913438B607B681B6803F06A
:101F58000803002B09D0124B9B6823F460427B686E
:101F68001B69DB000E4913438B6000F021F8024621
:101F78000B4B9B681B0903F00F030A49CB5C22FA41
:101F880003F3094A1360094B1B681846FEF7EEFE77
:101F9800002318461037BD4680BD00BF003C0240F4
:101FA80000380240D0230008000000200400002070
:101FB8002DE9B04F94B000AF00237B640023FB648D
:101FC80000233B640023BB64794B9B6803F00C033C
:101FD800082B0DD0082B00F2E180002B02D0042B37
:101FE80003D0DBE0734BBB64DBE0734BBB64D8E02E
:101FF8006F4B5B6803F03F037B646D4B5B6803F4D6
:102008008003002B63D06A4B5B689B090022BB638B
:10201800FA63BB6BC3F308033B6300237B63D7E915
:102028000C4522462B464FF000004FF000015901A5
:1020380041EAD261500102460B462146511A3961E4
:10204800294663EB01037B614FF000024FF0000368
:10205800D7E904AB59468B01514643EA916351468F
:102068008A015146B2EB0108594663EB01094FF06A
:1020780000024FF000034FEAC90343EA58734FEADE
:10208800C80290469946234618EB0303BB602B46CB
:1020980049EB0303FB604FF000024FF00003D7E960
:1020A800024529464B02214643EAD15321464A02BA
:1020B800104619467B6C0022BB62FA62D7E90A23F4
:1020C800FEF77EF802460B461346FB6458E0384B91
:1020D8005B689B09002218461146C0F308033B625F
:1020E80000237B62D7E9088942464B464FF000003F
:1020F8004FF00001590141EAD261500102460B46F6
:102108004146B2EB010A494663EB010B4FF000026E
:102118004FF000034FEA8B1343EA9A634FEA8A129F
:10212800B2EB0A0463EB0B054FF000024FF000031B
:10213800EB0043EA5473E20014461D464346E31895
:102148003B604B4645EB03037B604FF000024FF0CA
:102158000003D7E9004529468B02214643EA9153FB
:1021680021468A02104619467B6C0022BB61FA613F
:10217800D7E90623FEF724F802460B461346FB640C
:102188000B4B5B681B0C03F0030301335B003B64E0
:10219800FA6C3B6CB2FBF3F3BB6402E0054BBB6427
:1021A80000BFBB6C18465037BD46BDE8B08F00BFB6
:1021B800003802400024F40000127A0080B582B092
:1021C80000AFFEF717FE78605D4B1B685C4A43F072
:1021D8000103136008E0FEF70DFE02467B68D31A80
:1021E800022B01D90323A7E0554B1B6803F0020318
:1021F800002BF0D0524B1B68514A43F08003136008
:10220800FEF7F8FD78604E4B00229A600AE0FEF770
:10221800F1FD02467B68D31A41F28832934201D914
:10222800032389E0464B9B6803F00C03002BEED197
:10223800FEF7E0FD7860424B1B68414A23F45023C7
:10224800136008E0FEF7D6FD02467B68D31A642BBC
:1022580001D9032370E03A4B1B6803F40033002BC9
:10226800F0D1FEF7C7FD7860354B1B68344A23F080
:102278008073136008E0FEF7BDFD02467B68D31A41
:10228800022B01D9032357E02D4B1B6803F0007381
:10229800002BF0D1FEF7AEFD7860294B1B68284A69
:1022A80023F08063136008E0FEF7A4FD02467B6814
:1022B800D31A022B01D903233EE0214B1B6803F0FC
:1022C8000063002BF0D11E4B1E4A5A601C4B1E4A5D
:1022D800C3F884201A4BDB68194A23F4F853D360F7
:1022E800174BDB68164A23F40053D360144BDB68A2
:1022F800134A43F41F03D360114BDB68104A43F4BD
:102308000013D3600E4B5B6F0D4A23F00103536734
:102318000B4B5B6F0A4A43F0807353670B4B0C4AB5
:102328001A600C4B1B681846FEF720FD0346002B6D
:1023380001D0012300E0002318460837BD4680BDC0
:102348000038024010300004003000200000002057
:102358000024F4000400002002440346934200D104
:10236800704703F8011BF9E770B50D4D0D4C641B60
:10237800A4100026A64209D10B4D0C4C00F018F809
:10238800641BA4100026A64205D170BD55F8043B75
:1023980098470136EEE755F8043B98470136F2E7CF
:1023A800E8230008E8230008E8230008EC230008D5
:1023B800F8B500BFF8BC08BC9E467047F8B500BF2A
:0823C800F8BC08BC9E467047FA
:1023D00000000000000000000102030406070809D5
:0823E00018DEFF7F0100000080
:0423E800AD0100083B
:0423EC00890100085B
:0C23F0000024F4001000000001000000B8
:0400000508000C756E
:00000001FF
